:020000040800F2
:1000000000000220D1880008218900082189000809
:1000100021890008218900082189000800000000CA
:10002000000000000000000000000000218900081E
:1000300021890008000000002189000821890008AA
:1000400021890008218900082189000821890008E8
:1000500021890008218900082189000821890008D8
:1000600021890008218900082189000821890008C8
:1000700021890008218900082189000821890008B8
:1000800021890008218900082189000821890008A8
:100090002189000821890008218900082189000898
:1000A0002189000821890008218900082189000888
:1000B0002189000821890008218900082189000878
:1000C0002189000821890008218900082189000868
:1000D0002189000821890008218900082189000858
:1000E0002189000821890008218900082189000848
:1000F0002189000821890008218900082189000838
:100100002189000821890008218900082189000827
:100110002189000821890008218900082189000817
:100120002189000821890008218900082189000807
:1001300021890008218900082189000821890008F7
:1001400021890008218900082189000821890008E7
:1001500021890008218900082189000821890008D7
:1001600021890008218900082189000821890008C7
:1001700021890008218900082189000821890008B7
:08018000218900082189000813
:1001880010B5054C237833B9044810B10448AFF3CF
:1001980000800121217010BDD00400200000000063
:1001A800E48E000808B5064B1BB106480649AFF3B4
:1001B80000800648016811B1054A02B1904708BDA0
:1001C80000000000E48E0008D4040020CC040020C5
:1001D80000000000154B002B08BF134B9D46A3F5EC
:1001E800803A00218B460F461348144A121A08F029
:1001F8006DFC0F4B002B00D098470E4B002B00D006
:1002080098470020002104460D4600200C49002292
:10021800002308F083FB08F00FFC2046294600F075
:100228009DFD08F0D1FB00BF0000080000000000A1
:100238000000000000000000D00400200405002099
:10024800F189000880B500AF4FF46D43CEF200038A
:100258004FF46D42CEF20002D2F8882042F47002C8
:10026800C3F888204FF46053C4F202034FF460527D
:10027800C4F20202126842F001021A604FF460539D
:10028800C4F202034FF000029A604FF46053C4F2C4
:1002980002034FF46052C4F20202126822F0847220
:1002A80022F480321A604FF46053C4F2020343F21E
:1002B8001002C2F200425A604FF46053C4F20203C3
:1002C8004FF46052C4F20202126822F480221A60CB
:1002D8004FF46053C4F202034FF00002DA6000F0FA
:1002E800C1F84FF46D43CEF200034FF000629A60FC
:1002F80080BD00BF80B487B000AF4FF000033B6102
:100308004FF000037B614FF00203FB604FF00003E6
:10031800BB604FF002037B604FF46053C4F20203EA
:100328009B6803F00C033B613B69042B0DD0082B41
:1003380015D0002B69D140F20403C2F200034FF438
:100348001052C0F2F4021A6069E040F20403C2F2EB
:1003580000034FF49052C0F27A021A605FE04FF443
:100368006053C4F202035B6803F480034FEA9353BB
:10037800BB604FF46053C4F202035B6803F03F03B1
:100388007B60BB68002B14D04FF49053C0F27A0303
:100398007A68B3FBF2F24FF46053C4F2020359686F
:1003A80047F6C0730B404FEA931303FB02F37B61DC
:1003B80013E04FF41053C0F2F4037A68B3FBF2F27F
:1003C8004FF46053C4F20203596847F6C0730B40F8
:1003D8004FEA931303FB02F37B614FF46053C4F2BB
:1003E80002035B6803F440334FEA134303F101034C
:1003F8004FEA4303FB607A69FB68B2FBF3F240F211
:100408000403C2F200031A6009E040F20403C2F2D6
:1004180000034FF41052C0F2F4021A6000BF4FF408
:100428006053C4F202039B6803F0F0034FEA13120F
:1004380040F20803C2F200039B5CDBB23B6140F26E
:100448000403C2F200031A683B6922FA03F240F27D
:100458000403C2F200031A6007F11C07BD4680BC02
:10046800704700BF80B483B000AF4FF000037B60DB
:100478004FF000033B604FF46053C4F202034FF4A3
:100488006052C4F20202126842F480321A604FF4D9
:100498006053C4F202031B6803F400333B607B68BB
:1004A80003F101037B603B68002B03D17B68B3F544
:1004B800A06FECD14FF46053C4F202031B6803F43D
:1004C8000033002B03D04FF001033B6002E04FF0F4
:1004D80000033B603B68012B40F082804FF460537F
:1004E800C4F202034FF46052C4F20202126C42F0EA
:1004F80080521A644FF4E043C4F200034FF4E04220
:10050800C4F20002126842F480421A604FF4605349
:10051800C4F202034FF46052C4F2020292689A6075
:100528004FF46053C4F202034FF46052C4F2020263
:10053800926842F400429A604FF46053C4F2020396
:100548004FF46052C4F20202926842F4A0529A60D8
:100558004FF46053C4F2020345F21942C0F24072EC
:100568005A604FF46053C4F202034FF46052C4F26D
:100578000202126842F080721A6000BF4FF46053A2
:10058800C4F202031B6803F00073002BF6D04FF48B
:100598007053C4F2020340F205621A604FF46053CC
:1005A800C4F202034FF46052C4F20202926822F0CD
:1005B80003029A604FF46053C4F202034FF460528E
:1005C800C4F20202926842F002029A6000BF4FF43D
:1005D8006053C4F202039B6803F00C03082BF6D1A6
:1005E80007F10C07BD4680BC704700BF80B485B0DA
:1005F80000AF78607B684FF4526202FB03F3FB6044
:1006080000BFFB68002B0CBF00230123DBB2FA6894
:1006180002F1FF32FA60002BF3D100BF07F1140793
:10062800BD4680BC704700BF80B588B000AF4FF4AE
:1006380080504FF0010105F0F3F84FF001004FF042
:10064800010105F045F84FF010004FF0010105F0E9
:100658003FF84FF0E003BB614FF002033B774FF0E8
:1006680002037B774FF00003BB774FF00003FB7763
:1006780007F118034FF00000C4F20200194605F014
:1006880013FC4FF00000C4F202004FF005014FF0D8
:10069800050205F097FD4FF00000C4F202004FF08C
:1006A80006014FF0050205F08DFD4FF00000C4F281
:1006B80002004FF007014FF0050205F083FD4FF4EB
:1006C8002863BB614FF001033B774FF002037B7750
:1006D8004FF00003BB774FF00003FB7707F11803D7
:1006E8004FF48050C4F20200194605F0DDFB4FF4C8
:1006F8008053C4F202034FF48052C4F20202128BF8
:1007080092B242F4207292B21A834FF00003BB8077
:100718004FF48273FB804FF000033B814FF00003DE
:100728007B814FF00003BB814FF40073FB814FF0D6
:1007380038033B824FF000037B824FF44050C4F2F1
:1007480001004FF0000106F0BFF807F104034FF471
:100758004050C4F20100194605F0CCFD4FF440505A
:10076800C4F201004FF0010105F062FF07F1200714
:10077800BD4680BD80B485B000AFF860B960FA802E
:100788007B714FF48053C4F202034FF48052C4F2D9
:100798000202528B91B2FA880A4392B25A837B7949
:1007A8009AB2FB689A8100BFFB681B899BB203F071
:1007B8000203002BF8D000BFFB681B899BB203F033
:1007C8000103002BF8D000BFFB681B899BB203F024
:1007D8008003002BF8D14FF48053C4F202034FF486
:1007E8008052C4F20202128B91B2FA880A4392B282
:1007F8001A8307F11407BD4680BC704780B483B0E4
:1008080000AF78600B46FB70FB789AB27B689A81E0
:1008180000BF7B681B899BB203F00203002BF8D052
:1008280000BF7B681B899BB203F00103002BF8D043
:1008380000BF7B681B899BB203F08003002BF8D1B3
:1008480007F10C07BD4680BC704700BF80B582B079
:1008580000AF0346FB714FF48053C4F202034FF418
:100868008052C4F20202528B92B242F4007292B2E7
:100878005A83FB794FF44050C4F201004FF4805181
:10088800C4F202014FF08002FFF774FF07F1080776
:10089800BD4680BD80B582B000AF0346FB714FF402
:1008A8008053C4F202034FF48052C4F20202128B46
:1008B80092B242F4007292B21A83FB794FF440501C
:1008C800C4F201004FF48051C4F202014FF08002DB
:1008D800FFF750FF07F10807BD4680BD80B584B01B
:1008E80000AF78607B681B78FB737B6803F10103BA
:1008F8007B6042E07B681B787A6802F101027A60CB
:100908001846FFF7A3FF7B681B78BB737B6803F16E
:1009180001037B60BB7B9BB203F08003BB81BB7B85
:1009280003F07F03BB7308E07B681B787A6802F1E9
:1009380001027A601846FFF7ADFFBB7B002B0CBFA6
:1009480000230123DBB2BA7B02F1FF32BA73002B1A
:10095800EAD1BB89002B10D07B681B78BB817B68F0
:1009680003F101037B60BB89FF2B02D14FF4FA73BB
:10097800BB81BB891846FFF739FEFB7B002B0CBFF8
:1009880000230123DBB2FA7B02F1FF32FA73002B5A
:10099800B0D107F11007BD4680BD00BF80B500AFDC
:1009A8004FF48053C4F202034FF48052C4F202029F
:1009B800528B92B242F4006292B25A8340F218000B
:1009C800C2F20000FFF78AFF40F25400C2F20000B2
:1009D800FFF784FF40F26400C2F20000FFF77EFFD9
:1009E8004FF03600FFF732FF4FF0C000FFF752FF1D
:1009F80080BD00BF80B582B000AFF871B9717A715F
:100A08003B714FF02A00FFF721FF4FF00000FFF77E
:100A180041FFFB791846FFF73DFF4FF00000FFF755
:100A280039FF7B791846FFF735FF4FF02B00FFF7AA
:100A38000DFF4FF00000FFF72DFFBB791846FFF7B9
:100A480029FF4FF00000FFF725FF3B791846FFF715
:100A580021FF4FF02C00FFF7F9FE07F10807BD460C
:100A680080BD00BF90B585B000AFF880B9807A80AE
:100A78003B80B7F906307F2B5DDCB7F904309F2B3C
:100A880059DCB7F90620B7F90230D31803F1FF3360
:100A98007F2B04DDFB88C3F180039BB27B80B7F911
:100AA8000420B7F90030D31803F1FF339F2B04DD7E
:100AB800BB88C3F1A0039BB23B80FB88D8B2BB883C
:100AC800D9B2FB88DAB27B88DBB2D318DBB203F188
:100AD800FF33DAB2BB88DCB23B88DBB2E318DBB2A7
:100AE80003F1FF33DBB2FFF785FF3B8C4FEA13239B
:100AF8009BB2FB733B8CBB733B88BB8016E07B8847
:100B0800FB800BE0FB7B1846FFF7C4FEBB7B184657
:100B1800FFF7C0FEFB8803F1FF33FB80B7F906300F
:100B2800002BEFDCBB8803F1FF33BB80B7F904303F
:100B3800002BE4DC00E000BF07F11407BD4690BDC0
:100B480080B584B000AF0346FB804FF000004FF043
:100B580000014FF07F024FF09F03FFF74BFF4FF468
:100B68008053C4F202034FF48052C4F20202528B43
:100B780092B242F0800292B25A834FF48053C4F288
:100B880002034FF48052C4F20202128B92B242F472
:100B9800007292B21A834FF00003FB7323E04FF008
:100BA8000003BB7318E0FB884FEA13239BB2DBB248
:100BB8004FF44050C4F201001946FFF71FFEFB88AE
:100BC800DBB24FF44050C4F201001946FFF716FE9D
:100BD800BB7B03F10103BB73BB7B9F2BE3D9FB7B7F
:100BE80003F10103FB73FB7B5BB2002BD7DA4FF4F5
:100BF8008053C4F202034FF48052C4F20202128BF3
:100C080092B242F0800292B21A8307F11007BD46F1
:100C180080BD00BF80B584B000AF0346FB804FF0B5
:100C280000004FF000014FF07F024FF09F03FFF7E5
:100C3800E1FE4FF00003FB731BE04FF00003BB73B2
:100C480010E0FB884FEA13239BB2DBB21846FFF78C
:100C580021FEFB88DBB21846FFF71CFEBB7B03F1C5
:100C68000103BB73BB7B9F2BEBD9FB7B03F1010318
:100C7800FB73FB7B5BB2002BDFDA07F11007BD4685
:100C880080BD00BF80B5ADF58C6D00AF07F50A7368
:100C98004FF00000194601F03FFE07F10403184623
:100CA80048F6A861C0F600014FF00A0201F066FE9E
:100CB800034687F85F3497F85F34002B1DD107F19E
:100CC80004023B46104648F6B461C0F600014FF0F6
:100CD8000E0202F02FF9034687F85F3497F85F3465
:100CE800002B0AD107F10403184602F08DFB0346D6
:100CF80087F85F3497F85F34002B07F58C67BD469B
:100D080080BD00BF80B584B000AF4FF010004FF039
:100D1800010104F05BFD4FF00003BB804FF0FF03BF
:100D2800BB6007F104034FF48050C4F20000194679
:100D380006F02CF84FF48050C4F200004FF0200168
:100D480007F0A8FB4FF48050C4F200004FF00101F7
:100D580006F0B2F907F11007BD4680BD80B500AFB7
:100D6800FFF762FC4FF00A00FFF740FCFFF716FEA2
:100D78004FF00000FFF7E4FEFFF784FF4FF47840E0
:100D8800FFF7DEFEFEE700BF80B487B000AFF86073
:100D9800B9607A60FB687B61BB683B610BE03B69CB
:100DA8001A787B691A707B6903F101037B613B69DF
:100DB80003F101033B617B68002B0CBF0023012377
:100DC800DBB27A6802F1FF327A60002BE7D107F1D3
:100DD8001C07BD4680BC704780B487B000AFF86080
:100DE800B9607A60FB687B6107E0BB68DAB27B694F
:100DF8001A707B6903F101037B617B68002B0CBFD0
:100E080000230123DBB27A6802F1FF327A60002BFB
:100E1800EBD107F11C07BD4680BC704780B489B090
:100E280000AFF860B9607A60FB68FB61BB68BB61C2
:100E38004FF000037B6100BF7B68002B0CBF0023D1
:100E48000123DBB27A6802F1FF327A60002B16D0F8
:100E5800FB691B781A46BB691B78D31A7B617B69CF
:100E6800002B14BF00230123DBB2FA6902F101024F
:100E7800FA61BA6902F10102BA61002BDCD17B691F
:100E8800184607F12407BD4680BC704780B483B07C
:100E980000AF7860396003E07B6803F101037B6091
:100EA8007B681B78002B05D07B681B781A463B684B
:100EB8009A42F1D17B681B78184607F10C07BD46AA
:100EC80080BC704780B584B000AF78607B681B79C0
:100ED800002B41D07B681B6BFB607B685A787B6872
:100EE80003F1340310461946FA684FF0010303F082
:100EF80097FD0346002B02D04FF001032EE07B68DC
:100F08004FF000021A717B685A6AFB689A4223D82C
:100F18007B685A6A7B68DB69D218FB689A421BD9DE
:100F28007B68DB78BB6014E07B68DB69FA68D31800
:100F3800FB607B685A787B6803F1340310461946D6
:100F4800FA684FF0010303F06BFDBB6803F1FF3350
:100F5800BB60BB68012BE7D84FF00003184607F1C8
:100F68001007BD4680BD00BF80B582B000AF786075
:100F780039607B681A6B3B689A421DD07868FFF726
:100F8800A1FF0346002B02D04FF0010316E07B6857
:100F98005A787B6803F13403104619463A684FF0D3
:100FA800010303F0CBFC0346002B02D04FF00103F2
:100FB80004E07B683A681A634FF00003184607F1AB
:100FC8000807BD4680BD00BF80B584B000AF78601B
:100FD8007868FFF777FF0346FB73FB7B002B40F035
:100FE800AB807B681B78032B40F097807B685B792C
:100FF800002B00F092807B684FF000021A637B6838
:1010080003F1340318464FF000014FF40072FFF764
:10101800E3FE7B684FF0550283F832227B684FF07D
:10102800AA0283F833227B684FF0520283F83420F7
:101038007B684FF0520283F835207B684FF06102DD
:1010480083F836207B684FF0410283F837207B68AD
:101058004FF0720283F818227B684FF0720283F80F
:1010680019227B684FF0410283F81A227B684FF0FF
:10107800610283F81B227B681B69DAB27B6883F8FC
:101088001C227B681B699BB24FEA13239BB2DAB21E
:101098007B6883F81D227B681B694FEA1343DAB229
:1010A8007B6883F81E227B681B694FEA1363DAB2F8
:1010B8007B6883F81F227B68DB68DAB27B6883F879
:1010C80020227B68DB689BB24FEA13239BB2DAB21B
:1010D8007B6883F821227B68DB684FEA1343DAB226
:1010E8007B6883F822227B68DB684FEA1363DAB2F5
:1010F8007B6883F823227B6859787B6803F1340284
:101108007B685B69084611461A464FF0010303F0F5
:1011180087FC7B684FF000025A717B685B78184641
:101128004FF000014FF0000203F00EFD0346002BC4
:1011380002D04FF00103FB73FB7B184607F1100741
:10114800BD4680BD80B483B000AF786039603B682D
:10115800A3F102033B607B689B69A3F102023B6831
:101168009A4202D84FF0000307E07B689B783A6800
:1011780002FB03F27B68DB6AD318184607F10C07F9
:10118800BD4680BC704700BF80B586B000AF7860B0
:1011980039603B68012B04D97B689A693B689A429D
:1011A80002D84FF00103BCE07B681B78022B52D0B9
:1011B800032B78D0012B40F0B2803B687B617B69C0
:1011C8004FEA53037A69D3187B617B685A6A7B6953
:1011D8004FEA5323D31878681946FFF7C5FE03462C
:1011E800002B40F095807B694FEAC3534FEAD353F5
:1011F8007A68D31893F834303B617B6903F10103B3
:101208007B617B685A6A7B694FEA5323D3187868F5
:101218001946FFF7A9FE0346002B7BD17B694FEAED
:10122800C3534FEAD3537A68D31893F834304FEA4C
:1012380003233A6913433B613B6803F00103002B26
:1012480003D03B694FEA131304E03B694FEA0353A9
:101258004FEA135365E07B685A6A3B684FEA1323E9
:10126800D31878681946FFF77FFE0346002B53D141
:101278003B684FEA43034FEAC3534FEAD35303F1A2
:1012880030037A68D31803F10403FB60FB6803F1A9
:1012980001031B784FEA03239AB2FB681B781343B8
:1012A8009BB29BB23DE07B685A6A3B684FEAD31316
:1012B800D31878681946FFF757FE0346002B2DD13F
:1012C8003B684FEA83034FEAC3534FEAD35303F112
:1012D80030037A68D31803F10403FB60FB6803F159
:1012E80003031B784FEA0362FB6803F102031B78D0
:1012F8004FEA03431A43FB6803F101031B784FEAE3
:1013080003231A43FB681B78134323F0704308E058
:1013180000BF04E000BF02E000BF00E000BF4FF0E4
:10132800FF33184607F11807BD4680BD80B588B061
:1013380000AFF860B9607A60BB68012B04D9FB681C
:101348009A69BB689A4203D84FF00203FB771AE107
:10135800FB681B78022B00F08380032B00F0AC8025
:10136800012B40F00181BB68BB61BB694FEA5303A5
:10137800BA69D318BB61FB685A6ABB694FEA532341
:10138800D318F8681946FFF7EFFD0346FB77FB7F94
:10139800002B40F0ED80BB694FEAC3534FEAD353AB
:1013A80003F13003FA68D31803F104037B61BB68C7
:1013B80003F00103002B0ED07B691B78DBB203F02E
:1013C8000F03DAB27B68DBB24FEA0313DBB21343D5
:1013D800DBB2DBB201E07B68DBB27A691370BB6910
:1013E80003F10103BB61FB684FF001021A71FB684E
:1013F8005A6ABB694FEA5323D318F8681946FFF7AE
:10140800B3FD0346FB77FB7F002B40F0B380BB693D
:101418004FEAC3534FEAD35303F13003FA68D318A2
:1014280003F104037B61BB6803F00103002B04D0C4
:101438007B684FEA1313DBB20FE07B691B78DBB2E2
:1014480023F00F03DAB27B684FEA1323DBB203F011
:101458000F03DBB21343DBB2DBB27A6913708EE0A1
:10146800FB685A6ABB684FEA1323D318F868194611
:10147800FFF77AFD0346FB77FB7F002B7CD1BB6827
:101488004FEA43034FEAC3534FEAD35303F1300300
:10149800FA68D31803F104037B617B68DAB27B69CD
:1014A8001A707B6903F101037A6892B24FEA12223B
:1014B80092B2D2B21A7062E0FB685A6ABB684FEA0D
:1014C800D313D318F8681946FFF74EFD0346FB7788
:1014D800FB7F002B52D1BB684FEA83034FEAC3530B
:1014E8004FEAD35303F13003FA68D31803F1040326
:1014F8007B617B6903F103031B784FEA03627B6915
:1015080003F102031B784FEA03431A437B6903F193
:1015180001031B784FEA03231A437B691B781343A3
:1015280003F070437A6813437B607B68DAB27B69A7
:101538001A707B6903F101037A6892B24FEA1222AA
:1015480092B2D2B21A707B6903F102037A684FEA49
:101558001242D2B21A707B6903F103037A684FEA28
:101568001262D2B21A700AE04FF00203FB7706E06B
:1015780000BF04E000BF02E000BF00E000BFFB685E
:101588004FF001021A71FB7F184607F12007BD468C
:1015980080BD00BF80B584B000AF786039603B681B
:1015A800012B04D97B689A693B689A4203D84FF0AB
:1015B8000203FB733FE04FF00003FB7332E07868EF
:1015C8003968FFF7E1FDB860BB68002B30D0BB6815
:1015D800012B03D14FF00203FB732CE0BB68B3F17E
:1015E800FF3F03D14FF00103FB7324E078683968AB
:1015F8004FF00002FFF79AFE0346FB73FB7B002BBC
:1016080018D17B681B69B3F1FF3F09D07B681B6960
:1016180003F101027B681A617B684FF001025A717D
:10162800BB683B607B689A693B689A42C7D802E00E
:1016380000BF00E000BFFB7B184607F11007BD465E
:1016480080BD00BF80B586B000AF786039603B6868
:10165800002B0ED17B68DB683B613B69002B04D013
:101668007B689A693B699A4217D84FF001033B613E
:1016780013E078683968FFF787FDB860BB68012B0D
:1016880002D84FF001036DE07B689A69BB689A4203
:1016980001D9BB6866E03B683B613B697B6100E060
:1016A80000BF7B6903F101037B617B689A697B69F1
:1016B8009A4209D84FF002037B617A693B699A42E2
:1016C80002D94FF000034DE078687969FFF75CFDB7
:1016D800B860BB68002B0FD0BB68B3F1FF3F02D0E6
:1016E800BB68012B01D1BB683CE07A693B699A422F
:1016F800D6D14FF0000335E000BF786879696FF004
:101708007042FFF713FE0346FB73FB7B002B09D1E6
:101718003B68002B06D0786839687A69FFF706FEBF
:101728000346FB73FB7B002B12D17B687A69DA6076
:101738007B681B69B3F1FF3F13D07B681B6903F11A
:10174800FF327B681A617B684FF001025A7108E02A
:10175800FB7B012B02D14FF0FF3301E04FF0010377
:101768007B617B69184607F11807BD4680BD00BF3D
:1017780080B584B000AF78600B467B807B687A8840
:10178800DA807B689B68FB60FB68012B05D07B686F
:101798001B689A69FB689A4202D84FF002036FE00F
:1017A800FB68002B08D17B681B681B78032B03D1CF
:1017B8007B681B689B6AFB60FB68002B16D17B6803
:1017C800FA68DA607B681B681B897A889A4202D3B8
:1017D8004FF0020354E07B681B689A6A7B884FEAE3
:1017E80013139BB2D2187B681A6139E07B681B68B7
:1017F8009B784FEA03137B811DE07B681B681846C2
:10180800F968FFF7C1FCF860FB68B3F1FF3F02D14C
:101818004FF0010334E0FB68012B05D97B681B6896
:101828009A69FB689A4202D84FF0020328E07A8846
:101838007B89D31A7B807A887B899A42DDD27B6840
:10184800FA68DA607B681B681846F968FFF77AFC63
:1018580002467B884FEA13139BB2D2187B681A6141
:101868007B681A687B8803F00F034FEA431303F180
:101878003003D31803F104027B685A614FF0000368
:10188800184607F11007BD4680BD00BF90B585B06A
:1018980000AF786039607B68DB8803F101033B8126
:1018A8003B89002B03D07B681B69002B02D14FF0CA
:1018B8000403D1E03B8903F00F039BB2002B40F0F7
:1018C800B8807B681B6903F101027B681A617B6839
:1018D800DB68002B09D17B681B681B893A899A420F
:1018E800C0F0A7804FF00403B6E03B894FEA13131A
:1018F8009BB21A467B681B689B7803F1FF33134041
:10190800002B40F096807B681A687B68DB6810467D
:101918001946FFF739FCF860FB68012B02D84FF035
:10192800020399E0FB68B3F1FF3F02D14FF00103D6
:1019380092E07B681B689A69FB689A426DD83B689D
:10194800002B02D14FF0040386E07B681A687B689D
:10195800DB6810461946FFF775FEF860FB68002B38
:1019680002D14FF0070377E0FB68012B02D14FF05B
:10197800020371E0FB68B3F1FF3F02D14FF00103AE
:101988006AE07B681B681846FFF79CFA0346002B41
:1019980002D04FF001035FE07B681B6803F134035A
:1019A80018464FF000014FF40072FFF715FA7B68F4
:1019B8001C687B681B681846F968FFF7C3FB034679
:1019C80023634FF00003FB7219E07B681B684FF03C
:1019D80001021A717B681B681846FFF773FA034601
:1019E800002B02D04FF0010336E07B681B681A6BAE
:1019F80002F101021A63FB7A03F10103FB727B68AF
:101A08001B689B78FA7A9A42DFD37B681B687A68EE
:101A18001268116BFA7A8A1A1A637B68FA68DA60B4
:101A28007B681B681846F968FFF78CFB02467B68E1
:101A38001A617B683A89DA807B681A683B8903F007
:101A48000F034FEA431303F13003D31803F10402E1
:101A58007B685A614FF00003184607F11407BD462A
:101A680090BD00BF80B584B000AF786039607868F9
:101A78004FF00001FFF77CFE0346FB73FB7B002B56
:101A880031D14FF00003BB607B681A687B681B6923
:101A980010461946FFF768FA0346FB73FB7B002BD9
:101AA80020D17B685B691B78E52B04D07B685B6978
:101AB8001B78002B08D1BB6803F10103BB60BA682F
:101AC8003B689A4203D10EE04FF00003BB60786890
:101AD8004FF00101FFF7DAFE0346FB73FB7B002B97
:101AE800D2D000E000BFFB7B184607F11007BD46C7
:101AF80080BD00BF80B485B000AF786039603B68B6
:101B080003F11B031B784FEA03239AB23B6803F1E6
:101B18001A031B7813439BB29BB2FB607B681B784C
:101B2800032B12D13B6803F115031B784FEA0323FB
:101B38009AB23B6803F114031B7813439BB29BB220
:101B48004FEA0343FA681343FB60FB68184607F142
:101B58001407BD4680BC704780B483B000AF78607E
:101B680039607B6803F11A033A68D2B21A707B684D
:101B780003F11B033A6892B24FEA122292B2D2B230
:101B88001A707B6803F114033A684FEA1242D2B222
:101B98001A707B6803F115033A684FEA124292B251
:101BA8004FEA122292B2D2B21A7007F10C07BD4660
:101BB80080BC704780B586B000AF786078684FF019
:101BC8000001FFF7D5FD0346FB75FB7D002B01D017
:101BD800FB7D3BE07B681A687B681B6910461946E9
:101BE800FFF7C2F90346FB75FB7D002B2AD17B6802
:101BF8005B693B613B691B78FB73FB7B002B03D163
:101C08004FF00403FB7520E03B6903F10B031B78DD
:101C180003F00803002B0AD17B689B6938691946D1
:101C28004FF00B02FFF7FAF80346002B0CD0786848
:101C38004FF00001FFF72AFE0346FB75FB7D002BE2
:101C4800C8D002E000BF00E000BFFB7D184607F1E6
:101C58001807BD4680BD00BF80B586B000AF78606C
:101C680039604FF00403FB753DE07B681A687B68B8
:101C78001B6910461946FFF777F90346FB75FB7D8C
:101C8800002B35D17B685B693B613B691B78FB7333
:101C9800FB7B002B03D14FF00403FB752DE03B6960
:101CA80003F10B031B7803F03F03BB73FB7BE52BAE
:101CB8000FD0FB7B2E2B0CD0BB7B0F2B09D0BB7B13
:101CC800082B14BF00230123DBB21A463B689A4253
:101CD80010D078684FF00001FFF7D8FD0346FB7578
:101CE800FB7D002B08D17B681B69002BBDD104E06C
:101CF80000BF02E000BF00E000BFFB7D002B03D067
:101D08007B684FF000021A61FB7D184607F118073F
:101D1800BD4680BD80B584B000AF786078684FF06C
:101D28000101FFF79FFE0346FB73FB7B002B24D1C9
:101D38007B681A687B681B6910461946FFF714F917
:101D48000346FB73FB7B002B17D17B685B69184646
:101D58004FF000014FF02002FFF73EF87B685A6908
:101D68007B689B69104619464FF00B02FFF70CF889
:101D78007B681B684FF001021A71FB7B184607F15C
:101D88001007BD4680BD00BF80B584B000AF786045
:101D98007B68DB8878681946FFF7EAFC0346FB7323
:101DA800FB7B002B16D17B681A687B681B69104681
:101DB8001946FFF7D9F80346FB73FB7B002B09D1C3
:101DC8007B685B694FF0E5021A707B681B684FF00F
:101DD80001021A71FB7B184607F11007BD4680BD4A
:101DE80080B588B000AF786039603B681B68FB60DD
:101DF80003E0FB6803F10103FB60FB681B782F2BF2
:101E0800F7D0FB681B785C2BF3D07B689B69BB60C1
:101E1800B8684FF020014FF00B02FEF7DDFF4FF0DE
:101E28000003FB774FF000033B613B697B614FF098
:101E38000803BB61FA687B69D3181B78BB777B6999
:101E480003F101037B61BB7F202B5DD9BB7F2F2B67
:101E58005AD0BB7F5C2B57D0BB7F2E2B03D03A695F
:101E6800BB699A4214D3BB69082B02D1BB7F2E2BC6
:101E780002D04FF0060383E04FF008033B614FF0B8
:101E88000B03BB61FB7F4FEA8303FB7700BFD1E7FE
:101E9800BB7F5BB2002B06DAFB7F43F00303FB77C3
:101EA8004FF006036CE0BB7F48F6C460C0F6000044
:101EB8001946FEF7EBFF0346002B02D04FF006034E
:101EC8005EE0BB7F402B07D9BB7F5A2B04D8FB7F32
:101ED80043F00203FB770DE0BB7F602B0AD9BB7F81
:101EE8007A2B07D8FB7F43F00103FB77BB7FA3F175
:101EF8002003BB77BA683B69D318BA7F1A703B696D
:101F080003F101033B6195E7FA687B69D2183B68E6
:101F18001A60BB7F202B02D84FF0040301E04FF07A
:101F28000003BB773B69002B02D14FF0060327E083
:101F3800BB681B78E52B03D1BB684FF005021A700C
:101F4800BB69082B03D1FB7F4FEA8303FB77FB7F39
:101F580003F00303012B03D1BB7F43F01003BB77CE
:101F6800FB7F03F00C03042B03D1BB7F43F0080372
:101F7800BB77BB6803F10B03BA7F1A704FF00003FD
:101F8800184607F12007BD4680BD00BF80B489B060
:101F980000AF786039603B6803F10903BB617B6877
:101FA8001B69002B00F091807B685B693B613B6992
:101FB8001B7BFB734FF00003FB6118E03A69FB6978
:101FC800D3181B78FB75FB7D202B14D0FB7D052BCC
:101FD80002D14FF0E503FB75BB69FA7D1A70BB6946
:101FE80003F10103BB61FB6903F10103FB61FB69B9
:101FF800072BE3D900E000BF3B6903F108031B7816
:10200800202B23D0BB694FF02E021A70BB6903F155
:102018000103BB614FF00803FB6112E03A69FB69F9
:10202800D3181B78FB75FB7D202B0ED0BB69FA7D7E
:102038001A70BB6903F10103BB61FB6903F101037A
:10204800FB61FB690A2BE9D900E000BF3B69DA7A3A
:102058003B681A723B6903F11F031B784FEA03625E
:102068003B6903F11E031B784FEA03431A433B699C
:1020780003F11D031B784FEA03231A433B6903F15D
:102088001C031B781A433B681A603B6903F1190368
:102098001B784FEA03239AB23B6903F118031B78B4
:1020A80013439BB29AB23B689A803B6903F11703CA
:1020B8001B784FEA03239AB23B6903F116031B7896
:1020C80013439BB29AB23B68DA80BB694FF00002B7
:1020D8001A7007F12407BD4680BC704780B584B0EC
:1020E80000AF786039603B681B782F2B03D03B68C2
:1020F8001B785C2B03D13B6803F101033B607B68D1
:102108004FF000029A603B681B781F2B0BD8786849
:102118004FF00001FFF72CFB0346FB737B684FF081
:1021280000025A6146E03B4678681946FFF758FEB8
:102138000346FB73FB7B002B35D17868FFF73AFD2C
:102148000346FB737B689B69DB7ABB73FB7B002BC5
:102158000BD0FB7B042B28D1BB7B03F00403002BA3
:1021680025D14FF00503FB7321E0BB7B03F004038B
:10217800002B1ED17B685B69BB60BB6803F10B0356
:102188001B7803F01003002B03D14FF00503FB73FA
:1021980010E07B681B681846B968FFF7ABFC02467D
:1021A8007B689A60BFE700BF04E000BF02E000BFA1
:1021B80000E000BFFB7B184607F11007BD4680BD55
:1021C80080B582B000AF786039607B685A787B68E8
:1021D80003F13403104619463A684FF0010302F040
:1021E800ADFB0346002B02D04FF0030356E07B689B
:1021F80093F833324FEA03239AB27B6893F832326A
:1022080013439BB21AB24AF65523CFF6FF739A428C
:1022180002D04FF0020341E07B6893F86D304FEA3B
:1022280003627B6893F86C304FEA03431A437B6878
:1022380093F86B304FEA03231A437B6893F86A30AC
:10224800134323F07F4244F24613C0F254039A42E8
:1022580002D14FF0000321E07B6893F889304FEA00
:1022680003627B6893F888304FEA03431A437B681C
:1022780093F887304FEA03231A437B6893F8863034
:10228800134323F07F4244F24613C0F254039A42A8
:1022980002D14FF0000301E04FF00103184607F1A7
:1022A8000807BD4680BD00BF80B592B000AFF8609A
:1022B800B9601346FB71FB681B68FB62FB6A1B78FD
:1022C800A3F130033B643B6C092B0DD8FB6A03F187
:1022D80001031B783A2B07D1FB6A03F10203FB6267
:1022E800FB68FA6A1A6002E04FF000033B64BB68BF
:1022F8004FF000021A603B6C002B02D04FF00B032A
:10230800D2E240F2EC43C2F200033A6C53F82230B6
:10231800BB62BB6A002B02D14FF00C03C4E2BB685E
:10232800BA6A1A60BB6A1B78002B1CD0BB6A5B7840
:10233800184602F0EBFA034687F8273097F827305B
:1023480003F00103002B0ED1FB79002B08D097F87E
:10235800273003F00403002B02D04FF00A03A3E256
:102368004FF00003A0E2BB6A4FF000021A703B6C0A
:10237800DAB2BB6A5A70BB6A5B78184602F0BCF9DD
:10238800034687F8273097F8273003F00103002B1E
:1023980002D04FF0030387E2FB79002B08D097F8AF
:1023A800273003F00403002B02D04FF00A037BE22E
:1023B8004FF00003FB63B86AF96BFFF701FF0346B0
:1023C80087F8473097F84730012B41D14FF0000389
:1023D80087F8463097F84630002B05D097F84630F6
:1023E80003F1FF3387F8463097F846304FEA031376
:1023F80003F5DF7303F13003BA6AD31803F104035A
:102408003B623B6A03F104031B78002B20D03B6A34
:1024180003F10B031B784FEA03623B6A03F10A03DB
:102428001B784FEA03431A433B6A03F109031B78FD
:102438004FEA03231A433B6A03F108031B7813434B
:10244800FB63B86AF96BFFF7BBFE034687F84730B2
:1024580097F84730032B02D14FF0010324E297F895
:102468004730002B02D04FF00D031DE2BB6A93F8F2
:1024780040304FEA03239AB2BB6A93F83F301343C4
:102488009BB21BB2B3F5007F02D04FF00D030BE2F5
:10249800BB6A93F84B304FEA03239AB2BB6A93F8AE
:1024A8004A3013439BB29BB2BB63BB6B002B15D165
:1024B800BB6A93F85B304FEA0362BB6A93F85A3001
:1024C8004FEA03431A43BB6A93F859304FEA032390
:1024D8001A43BB6A93F858301343BB63BB6ABA6BA1
:1024E800DA61BB6A93F84430FB77BB6AFA7FDA702B
:1024F800FB7F012B05D0FB7F022B02D04FF00D0391
:10250800D2E1FA7FBB6B02FB03F3BB63BB6A93F8B0
:102518004130FB77BB6AFA7F9A70FB7F002B06D0AD
:10252800FA7FFB7F03F1FF331340002B02D04FF0FB
:102538000D03B9E1BB6A93F846304FEA03239AB218
:10254800BB6A93F8453013439BB29AB2BB6A1A81AF
:10255800BB6A1B8903F00F039BB2002B02D04FF01C
:102568000D03A1E1BB6A93F848304FEA03239AB2FE
:10257800BB6A93F8473013439BB29BB27B637B6B78
:10258800002B15D1BB6A93F857304FEA0362BB6A38
:1025980093F856304FEA03431A43BB6A93F8553011
:1025A8004FEA03231A43BB6A93F8543013437B63FF
:1025B800BB6A93F843304FEA03239AB2BB6A93F895
:1025C800423013439BB2BB83BB8B002B02D14FF02D
:1025D8000D0369E1BA8BBB6BD218BB6A1B894FEA42
:1025E80013139BB2D318BB617A6BBB699A4202D2B0
:1025F8004FF00D0358E17A6BBB69D21ABB6A9B781E
:10260800B2FBF3F37B617B69002B02D14FF00D0322
:102618004AE14FF0010387F847307A6940F6F573CD
:102628009A4203D94FF0020387F847307A694FF688
:10263800F5739A4203D94FF0030387F847307B6953
:1026480003F10202BB6A9A61BB6AFA6B1A62BA8B1F
:10265800FB6BD218BB6A5A62FA6BBB69D218BB6AA9
:10266800DA6297F84730032B23D1BB6A1B89002B0A
:1026780002D04FF00D0317E1BB6A93F863304FEABD
:102688000362BB6A93F862304FEA03431A43BB6A9A
:1026980093F861304FEA03231A43BB6A93F860301A
:1026A8001A43BB6A9A62BB6A9B694FEA83033B631E
:1026B80023E0BB6A1B89002B02D14FF00D03F3E026
:1026C800BB6A5A6ABB6BD218BB6A9A6297F84730E2
:1026D800022B04D1BB6A9B694FEA43030CE0BB6A37
:1026E8009A6913464FEA43039B184FEA5302BB6AA1
:1026F8009B6903F00103D3183B63BB6ADA693B6B40
:1027080003F2FF134FEA53239A4202D24FF00D030C
:10271800CAE0BB6A4FF0FF321A61BB6A4FF0000291
:10272800DA6097F84730032B40F09C80BB6A4FF083
:1027380000025A71BB6A93F865304FEA03239AB2D4
:10274800BB6A93F8643013439BB29BB21A46FB6B87
:10275800D218BB6A5A61BB6A5978BB6A03F1340262
:10276800BB6A5B69084611461A464FF0010302F03E
:10277800E5F80346002B75D1BB6A93F833324FEA6C
:1027880003239AB2BB6A93F8323213439BB21AB24C
:102798004AF65523CFF6FF739A4263D1BB6A93F882
:1027A80037304FEA0362BB6A93F836304FEA034387
:1027B8001A43BB6A93F835304FEA03231A43BB6ABE
:1027C80093F834301A4345F25223C4F261139A4203
:1027D80048D1BB6A93F81B324FEA0362BB6A93F88D
:1027E8001A324FEA03431A43BB6A93F819324FEA85
:1027F80003231A43BB6A93F818321A4347F2722329
:10280800C6F241139A422DD1BB6A93F823324FEA9C
:102818000362BB6A93F822324FEA03431A43BB6A46
:1028280093F821324FEA03231A43BB6A93F8203204
:102838001A43BB6ADA60BB6A93F81F324FEA036235
:10284800BB6A93F81E324FEA03431A43BB6A93F8F4
:102858001D324FEA03231A43BB6A93F81C321A430A
:10286800BB6A1A61BB6A97F847201A7040F2F043B6
:10287800C2F200031B8803F101039AB240F2F0434D
:10288800C2F200031A8040F2F043C2F200031A8831
:10289800BB6ADA80BB6A4FF000021A63BB6A4FF06A
:1028A80000021A714FF00003184607F14807BD46A9
:1028B80080BD00BF80B584B000AF78607B68FB60E6
:1028C800FB68002B0FD0FB681B68002B0BD0FB6844
:1028D8001B681B78002B06D0FB681B68DA88FB682E
:1028E8009B889A4202D04FF009030FE0FB681B68EF
:1028F8005B78184602F00AF8034603F00103002B40
:1029080002D04FF0030301E04FF00003184607F12F
:102918001007BD4680BD00BF80B485B000AF034638
:102928003960FB71FB79002B02D04FF00B031FE0DD
:10293800FA7940F2EC43C2F2000353F82230FB600C
:10294800FB68002B03D0FB684FF000021A703B684D
:10295800002B03D03B684FF000021A70FA7940F25E
:10296800EC43C2F20003396843F822104FF0000329
:10297800184607F11407BD4680BC704780B592B071
:1029880000AFF860B9601346FB71FB68002B02D1F9
:102998004FF0090355E1FB684FF000021A60FB791C
:1029A80003F01F03FB71FB7923F00103DBB207F18E
:1029B800080107F11C02084611461A46FFF774FC85
:1029C800034687F8473097F84730002B40F03781A7
:1029D80007F110037B63BB6807F11C021046194618
:1029E800FFF77CFB034687F847303B6B3B6497F85F
:1029F8004730002B06D13B6C002B03D14FF0060368
:102A080087F84730FB7903F01C03002B00F0A880FF
:102A180097F84730002B12D097F84730042B07D18E
:102A280007F11C031846FFF775F9034687F8473086
:102A3800FB7943F00803FB713B6B3B6415E03B6C8F
:102A480003F10B031B7803F01103002B04D04FF0A4
:102A5800070387F8473008E0FB7903F00403002BED
:102A680003D04FF0080387F8473097F84730002B1A
:102A780040F09880FB7903F00803002B00F0928067
:102A880002F07CFAF8633B6C03F10E03FA6BD2B2E6
:102A98001A703B6C03F10F03FA6B92B24FEA1222E1
:102AA80092B2D2B21A703B6C03F11003FA6B4FEA80
:102AB8001242D2B21A703B6C03F11103FA6B4FEA5F
:102AC8001262D2B21A703B6C03F10B034FF0000292
:102AD8001A703B6C03F11C034FF000021A703B6C38
:102AE80003F11D034FF000021A703B6C03F11E0343
:102AF8004FF000021A703B6C03F11F034FF0000205
:102B08001A70FB691846396CFEF7F4FFB863386C25
:102B18004FF00001FFF720F8FB694FF001021A712E
:102B2800BB6B002B3ED0FB691B6BFB63FB69184634
:102B3800B96BFEF72FFD034687F8473097F8473003
:102B4800002B2FD1FB69BA6B02F1FF32DA60FB6907
:102B58001846F96BFEF708FA034687F8473021E074
:102B680097F84730002B1DD13B6C03F10B031B7802
:102B780003F01003002B04D04FF0040387F847300C
:102B880010E0FB7903F00203002B0BD03B6C03F140
:102B98000B031B7803F00103002B03D04FF007034E
:102BA80087F8473097F84730002B0FD1FB7903F0AF
:102BB8000803002B03D0FB7943F02003FB71FB696A
:102BC8001A6BFB68DA61FB683A6C1A6297F847304F
:102BD800002B34D1FB68FA799A71FB691846396C75
:102BE800FEF788FF0246FB681A613B6C03F11F037E
:102BF8001B784FEA03623B6C03F11E031B784FEA14
:102C080003431A433B6C03F11D031B784FEA03236C
:102C18001A433B6C03F11C031B781A43FB68DA6008
:102C2800FB684FF000029A60FB684FF000029A615F
:102C3800FA69FB681A60FB69DA88FB689A8097F87A
:102C48004730184607F14807BD4680BD80B58CB0AF
:102C580000AFF860B9607A603B60BB683B623B6874
:102C68004FF000021A60F868FFF724FE0346FB776E
:102C7800FB7F002B01D0FB7F56E1FB689B79DBB221
:102C88005BB2002B02DA4FF002034DE1FB689B793F
:102C980003F00103002B02D14FF0070344E1FB6866
:102CA800DA68FB689B68D31ABB617A68BB699A4289
:102CB80040F23481BB697B6030E1FB689B684FEA76
:102CC800C3534FEAD353002B40F0F480FB689B6852
:102CD8004FEA5323DAB2FB681B689B7803F1FF3392
:102CE800DBB21340FB75FB7D002B2ED1FB689B6884
:102CF800002B03D1FB681B69FB6208E0FB681A68BC
:102D0800FB685B6910461946FEF73EFAF862FB6AF3
:102D1800012B09D8FB689B7963F07F03DAB2FB6863
:102D28009A714FF00203FFE0FB6AB3F1FF3F09D14C
:102D3800FB689B7963F07F03DAB2FB689A714FF006
:102D48000103F1E0FB68FA6A5A61FB681A68FB68DC
:102D58005B6910461946FEF7F5F938613B69002BA7
:102D680009D1FB689B7963F07F03DAB2FB689A713B
:102D78004FF00203D8E0FB7D3A69D3183B617B68CA
:102D88004FEA53237B627B6A002B48D0FA7D7B6A2B
:102D9800D218FB681B689B789A4206D9FB681B68A7
:102DA8009B781A46FB7DD31A7B62FB681B685A78AE
:102DB8007B6ADBB21046396A3A6901F0BFFD034607
:102DC800002B09D0FB689B7963F07F03DAB2FB68BC
:102DD8009A714FF00103A7E0FB689B7903F0400369
:102DE800002B17D0FB689A693B69D21A7B6A9A4212
:102DF80010D2FB689A693B69D31A4FEA43233A6AAF
:102E0800D218FB6803F12403104619464FF40072E8
:102E1800FDF7BAFF7B6A4FEA4323BB626AE0FB68AF
:102E28009A693B699A4242D0FB689B7903F0400358
:102E3800002B22D0FB681B685978FB6803F1240239
:102E4800FB689B69084611461A464FF0010301F0DA
:102E5800E7FD0346002B09D0FB689B7963F07F03ED
:102E6800DAB2FB689A714FF001035DE0FB689B7969
:102E780023F04003DAB2FB689A71FB681B685A7842
:102E8800FB6803F12403104619463A694FF0010321
:102E980001F054FD0346002B09D0FB689B7963F0D1
:102EA8007F03DAB2FB689A714FF001033CE0FB68DC
:102EB8003A699A61FB689B684FEAC3534FEAD35358
:102EC800C3F50073BB62BA6A7B689A4201D97B6812
:102ED800BB62FB689B684FEAC3534FEAD35303F1C5
:102EE8002003FA68D31803F10403386A1946BA6A4A
:102EF800FDF74AFF3A6ABB6AD3183B62FB689A68D7
:102F0800BB6AD218FB689A603B681A68BB6AD21819
:102F18003B681A607A68BB6AD31A7B607B68002BAF
:102F28007FF4CBAE4FF00003184607F13007BD46DB
:102F380080BD00BF80B58AB000AFF860B9607A6024
:102F48003B60BB68BB613B684FF000021A60F868E1
:102F5800FFF7B0FC0346FB75FB7D002B01D0FB7D22
:102F680088E1FB689B79DBB25BB2002B02DA4FF099
:102F780002037FE1FB689B7903F00203002B02D177
:102F88004FF0070376E1FB68DA687B68D218FB68C4
:102F9800DB689A4280F055814FF000037B6050E176
:102FA800FB689B684FEAC3534FEAD353002B40F0AA
:102FB8000D81FB689B684FEA5323DAB2FB681B68F4
:102FC8009B7803F1FF33DBB21340BB75BB7D002B4D
:102FD80040D1FB689B68002B11D1FB681B697B62A1
:102FE8007B6A002B14D1FB681B6818464FF0000160
:102FF800FEF728FB7862FB687A6A1A6108E0FB68CA
:103008001A68FB685B6910461946FEF71BFB786275
:103018007B6A002B00F01A817B6A012B09D1FB68BF
:103028009B7963F07F03DAB2FB689A714FF0020371
:1030380020E17B6AB3F1FF3F09D1FB689B7963F01C
:103048007F03DAB2FB689A714FF0010312E1FB6863
:103058007A6A5A61FB689B7903F04003002B22D0FF
:10306800FB681B685978FB6803F12402FB689B69BD
:10307800084611461A464FF0010301F0D1FC0346F9
:10308800002B09D0FB689B7963F07F03DAB2FB68F9
:103098009A714FF00103EDE0FB689B7923F0400340
:1030A800DAB2FB689A71FB681A68FB685B691046BC
:1030B8001946FEF747F838613B69002B09D1FB68D0
:1030C8009B7963F07F03DAB2FB689A714FF00203D1
:1030D800D0E0BB7D3A69D3183B617B684FEA532344
:1030E800FB61FB69002B49D0BA7DFB69D218FB68EC
:1030F8001B689B789A4206D9FB681B689B781A461E
:10310800BB7DD31AFB61FB681B685A78FB69DBB28D
:103118001046B9693A6901F083FC0346002B09D0CF
:10312800FB689B7963F07F03DAB2FB689A714FF012
:1031380001039FE0FB689A693B69D21AFB699A42CE
:1031480017D2FB6803F12402FB6899693B69CB1A23
:103158004FEA4323B969CB18104619464FF4007259
:10316800FDF712FEFB689B7923F04003DAB2FB6897
:103178009A71FB694FEA43233B624EE0FB689A6908
:103188003B699A421FD0FB689A68FB68DB689A42E1
:1031980019D2FB681B685A78FB6803F124031046B0
:1031A80019463A694FF0010301F0C8FB0346002BAA
:1031B80009D0FB689B7963F07F03DAB2FB689A71E8
:1031C8004FF0010356E0FB683A699A61FB689B6817
:1031D8004FEAC3534FEAD353C3F500733B623A6ACD
:1031E8007B689A4201D97B683B62FB689B684FEA1F
:1031F800C3534FEAD35303F12003FA68D31803F1FA
:1032080004031846B9693A6AFDF7BEFDFB689B7965
:1032180043F04003DAB2FB689A71BA693B6AD31883
:10322800BB61FB689A683B6AD218FB689A603B6886
:103238001A683B6AD2183B681A607A683B6AD31AE4
:103248007B607B68002B7FF4ABAE00E000BFFB68BF
:103258009A68FB68DB689A4203D9FB689A68FB683E
:10326800DA60FB689B7943F02003DAB2FB689A7155
:103278004FF00003184607F12807BD4680BD00BF80
:1032880080B586B000AF78607868FFF713FB034617
:10329800FB75FB7D002B40F0B0807B689B7903F0C9
:1032A8002003002B00F0A9807B689B7903F0400382
:1032B800002B1BD07B681B6859787B6803F12402BC
:1032C8007B689B69084611461A464FF0010301F0D6
:1032D800A7FB0346002B02D04FF001038EE07B686A
:1032E8009B7923F04003DAB27B689A717B681A688D
:1032F8007B68DB6910461946FDF736FE0346FB7509
:10330800FB7D002B79D17B681B6A3B613B6903F12C
:103318000B033A6902F10B02127842F02002D2B292
:103328001A703B6903F11C037A68D268D2B21A702A
:103338003B6903F11D037A68D26892B24FEA122200
:1033480092B2D2B21A703B6903F11E037A68D2684E
:103358004FEA1242D2B21A703B6903F11F037A682E
:10336800D2684FEA1262D2B21A707B681B69386958
:103378001946FEF7F1FB01F001FEF8603B6903F125
:103388001603FA68D2B21A703B6903F11703FA6898
:1033980092B24FEA122292B2D2B21A703B6903F18A
:1033A8001803FA684FEA1242D2B21A703B6903F165
:1033B8001903FA684FEA1262D2B21A703B6903F134
:1033C80012034FF000021A703B6903F113034FF028
:1033D80000021A707B689B7923F02003DAB27B68BD
:1033E8009A717B681B684FF001021A717B681B6831
:1033F8001846FDF7E9FD0346FB75FB7D184607F106
:103408001807BD4680BD00BF80B584B000AF7860A6
:103418007868FFF735FF0346FB73FB7B002B03D16E
:103428007B684FF000021A60FB7B184607F1100713
:10343800BD4680BD80B588B000AF786039607868D7
:10344800FFF738FA0346FB75FB7D002B01D0FB7DA7
:1034580057E17B689B79DBB25BB2002B02DA4FF055
:1034680002034EE17B68DA683B689A4208D27B68BF
:103478009B7903F00203002B02D17B68DB683B6079
:103488007B689B683B614FF00003BB617B68BA694E
:103498009A603B68002B00F0CF807B681B689B78A4
:1034A8004FEA4323FB603B69002B1FD03B6803F1C5
:1034B800FF32FB68B2FBF3F23B6903F1FF31FB68B3
:1034C800B1FBF3F39A4211D33B6903F1FF32FB6876
:1034D800C3F100031A407B689A607B689B683A686E
:1034E800D31A3B607B685B69FB612EE07B681B69D4
:1034F800FB61FB69002B25D17B681B6818464FF0E0
:103508000001FEF79FF8F861FB69012B09D17B6880
:103518009B7963F07F03DAB27B689A714FF00203FC
:10352800EFE0FB69B3F1FF3F09D17B689B7963F05A
:103538007F03DAB27B689A714FF00103E1E07B68A0
:10354800FA691A617B68FA695A61FB69002B73D0C2
:1035580047E07B689B7903F00203002B0CD07B6863
:103568001B681846F969FEF76DF8F861FB69002BCE
:1035780009D1FB683B6038E07B681B681846F9692D
:10358800FDF702FEF861FB69B3F1FF3F09D17B68E3
:103598009B7963F07F03DAB27B689A714FF001037D
:1035A800AFE0FB69012B05D97B681B689A69FB6949
:1035B8009A4209D87B689B7963F07F03DAB27B680B
:1035C8009A714FF002039CE07B68FA695A617B6844
:1035D8009A68FB68D2187B689A603A68FB68D31AC5
:1035E8003B603A68FB689A42B3D87B689A683B6844
:1035F800D2187B689A603B684FEAC3534FEAD353AB
:10360800002B19D07B681B681846F969FDF79AFDED
:10361800B861BB69002B09D17B689B7963F07F0394
:10362800DAB27B689A714FF002036AE03B684FEAAE
:103638005323BA69D318BB617B689B684FEAC353AD
:103648004FEAD353002B4AD07B689A69BB699A42E8
:1036580045D07B689B7903F04003002B22D07B6820
:103668001B6859787B6803F124027B689B690846CC
:1036780011461A464FF0010301F0D2F90346002B18
:1036880009D07B689B7963F07F03DAB27B689A7113
:103698004FF0010335E07B689B7923F04003DAB2F1
:1036A8007B689A717B681B685A787B6803F12403EE
:1036B80010461946BA694FF0010301F03FF9034675
:1036C800002B09D07B689B7963F07F03DAB27B68B3
:1036D8009A714FF0010314E07B68BA699A617B68BC
:1036E8009A687B68DB689A420AD97B689A687B6823
:1036F800DA607B689B7943F02003DAB27B689A71C1
:10370800FB7D184607F12007BD4680BD80B588B00F
:1037180000AF786039607B68002B02D14FF0090355
:1037280058E07B683A46104619464FF00002FEF70B
:10373800BBFD0346FB777B681B68BB61FB7F002BE7
:1037480043D17B6807F10C029A613B687868194697
:10375800FEF7C4FC0346FB77FB7F002B27D17B6871
:103768005B69002B15D07B685B6903F10B031B7841
:1037780003F01003002B09D07B685B69B869194610
:10378800FEF7B8F902467B689A6002E04FF005033D
:10379800FB77FB7F002B0AD1BB69DA887B689A80AC
:1037A80078684FF00001FDF7E3FF0346FB77FB7FE6
:1037B800042B02D14FF00503FB77FB7F002B08D0C9
:1037C8007B684FF000021A6003E07B684FF000024C
:1037D8001A60FB7F184607F12007BD4680BD00BF71
:1037E80080B586B000AF786039607868FFF762F816
:1037F8000346FB75FB7D002B37D13B68002B07D1B7
:1038080078684FF00001FDF7B3FF0346FB752CE025
:103818007B6807F108029A6178684FF00001FEF7AB
:103828001BFA0346FB75FB7D042B06D17B684FF022
:1038380000021A614FF00003FB75FB7D002B14D1C9
:1038480078683968FEF7A2FB78684FF00001FEF748
:103858001DF80346FB75FB7D042B06D17B684FF0F2
:1038680000021A614FF00003FB75FB7D184607F153
:103878001807BD4680BD00BF80B58EB000AF786028
:10388800396007F1040207F11803104619464FF092
:103898000002FEF709FD034687F8373097F83730FE
:1038A800002B1ED107F10C033B637B6807F118025C
:1038B80010461946FEF712FC034687F8373097F88A
:1038C8003730002B0DD1FB6A002B06D007F1180307
:1038D80018463968FEF75AFB03E04FF0060387F8ED
:1038E800373097F83730184607F13807BD4680BD9E
:1038F80080B58EB000AFF860B9607A6007F10C034C
:10390800184679684FF00002FEF7CEFC034687F8A8
:1039180037307B681B68FB6197F83730002B40F025
:10392800C180FB691A69FB699B69A3F102039A428A
:1039380004D8FB691A69BB681A60B3E0FB691B7895
:10394800FB764FF000033B63FB7E012B2AD14FF03F
:103958000203FB62F869F96AFDF716FC78617B6976
:10396800B3F1FF3F04D14FF0010387F837308CE003
:103978007B69012B05D14FF0020387F8373000BF70
:1039880083E07B69002B03D13B6B03F101033B63AD
:10399800FB6A03F10103FB62FB699B69FA6A9A42BD
:1039A800D8D372E0FB699B69FB62FB695B6ABB6207
:1039B8004FF000037B624FF000033B627B6A002BF1
:1039C80016D1BB6ABA6A02F10102BA62F8691946ED
:1039D800FDF7CAFA034687F8373097F83730002BD7
:1039E80052D1FB6903F134033B624FF400737B62ED
:1039F800FB7E022B19D13B6A03F101031B784FEAC6
:103A080003239AB23B6A1B7813439BB2002B03D162
:103A18003B6B03F101033B633B6A03F102033B6227
:103A28007B6AA3F102037B6226E03B6A03F103038E
:103A38001B784FEA03623B6A03F102031B784FEAE3
:103A480003431A433B6A03F101031B784FEA03233C
:103A58001A433B6A1B78134323F07043002B03D1AE
:103A68003B6B03F101033B633B6A03F104033B62D5
:103A78007B6AA3F104037B62FB6A03F1FF33FB62F9
:103A8800FB6A002B9AD100E000BFFB693A6B1A6110
:103A9800FB7E032B03D1FB694FF001025A71BB680F
:103AA8003A6B1A6097F83730184607F13807BD4661
:103AB80080BD00BF80B584B000AF78607868FEF73D
:103AC800F9FE0346FB73FB7B002B12D17B689B79C5
:103AD800DBB25BB2002B03DA4FF00203FB7308E0A2
:103AE8007B689B7903F00203002B02D14FF0070398
:103AF800FB73FB7B002B66D17B68DA687B689B686D
:103B08009A4256D97B689A687B68DA607B689B79A9
:103B180043F02003DAB27B689A717B689B68002BBC
:103B28000ED17B681A687B681B6910461946FDF739
:103B380031FD0346FB737B684FF000021A6138E0E1
:103B48007B681A687B685B6910461946FDF71CFBA1
:103B5800B8604FF00003FB73BB68B3F1FF3F02D1BD
:103B68004FF00103FB73BB68012B02D14FF0020336
:103B7800FB73FB7B002B1CD17B681B689A69BB68B5
:103B88009A4216D97B681A687B685B6910461946A1
:103B98006FF07042FDF7CAFB0346FB73FB7B002BFB
:103BA80007D17B681B681846B968FDF7F3FC034624
:103BB800FB73FB7B002B06D07B689B7963F07F034C
:103BC800DAB27B689A71FB7B184607F11007BD468D
:103BD80080BD00BF80B596B000AF786007F10402E1
:103BE80007F13003104619464FF00102FEF75CFB5F
:103BF800034687F8573097F85730002B40F09C80E1
:103C080007F10803BB647B6807F1300210461946C8
:103C1800FEF764FA034687F8573097F85730002BB9
:103C280040F08A807B6C3B653B6D002B04D14FF0E4
:103C3800060387F857300BE03B6D03F10B031B7845
:103C480003F00103002B03D04FF0070387F8573028
:103C58003B6B1846396DFDF74DFFF86497F8573000
:103C6800002B43D13B6D03F10B031B7803F01003CA
:103C7800002B3BD0FB6C012B04D84FF0020387F8D4
:103C8800573033E007F1140207F1300310461946A4
:103C98004FF01C02FDF778F8FB6CFB6107F1140389
:103CA80018464FF00201FDF763FD034687F85730C9
:103CB80097F85730002B19D107F1140318464FF025
:103CC8000001FDF7C9FF034687F8573097F85730CA
:103CD800002B03D14FF0070387F8573097F8573078
:103CE800042B03D14FF0000387F8573097F857306B
:103CF800002B21D107F130031846FEF745F803469B
:103D080087F8573097F85730002B15D1FB6C002BEC
:103D180007D03B6B1846F96CFDF73CFC034687F867
:103D2800573097F85730002B06D13B6B1846FDF7F4
:103D38004BF9034687F8573097F85730184607F17C
:103D48005807BD4680BD00BF80B592B000AF78600F
:103D580001F014F9B86307F1040207F114031046DF
:103D680019464FF00102FEF79FFA034687F84730DD
:103D780097F84730002B40F0308107F10803FB62C9
:103D88007B6807F1140210461946FEF7A7F90346A7
:103D980087F8473097F84730002B03D14FF00803D6
:103DA80087F8473097F84730042B40F016817B6935
:103DB80018464FF00001FDF745FC78634FF000030B
:103DC80087F847307B6B002B03D14FF0070387F848
:103DD80047307B6B012B03D14FF0020387F8473044
:103DE8007B6BB3F1FF3F03D14FF0010387F84730F6
:103DF80097F84730002B06D17B691846FDF762F823
:103E0800034687F8473097F84730002B40F09880F2
:103E18007B691846796BFDF795F938647B6903F17E
:103E280034033B63386B4FF000014FF40072FCF72A
:103E3800D3FF386B4FF020014FF00B02FCF7CCFF9B
:103E48003B6B4FF02E021A703B6B03F10B034FF0E4
:103E580010021A703B6B03F11603BA6BD2B21A70D8
:103E68003B6B03F11703BA6B92B24FEA122292B27C
:103E7800D2B21A703B6B03F11803BA6B4FEA1242C5
:103E8800D2B21A703B6B03F11903BA6B4FEA126294
:103E9800D2B21A70386B796BFDF75EFE3B6B03F19B
:103EA80020031846396B4FF02002FCF76DFF3B6B7F
:103EB80003F121034FF02E021A70FB69FB637B6943
:103EC8001B78032B07D17B699A6AFB6B9A4202D154
:103ED8004FF00003FB633B6B03F120031846F96BBB
:103EE800FDF73AFE7B699B7887F8463022E07B69CC
:103EF8003A6C1A633B6C03F101033B647B694FF036
:103F080001021A717B691846FCF7DCFF034687F843
:103F1800473097F84730002B11D1386B4FF000012C
:103F28004FF40072FCF758FF97F8463003F1FF335F
:103F380087F8463097F84630002BD8D100E000BF0C
:103F480097F84730002B07D107F114031846FDF7FF
:103F5800E1FE034687F8473097F84730002B05D035
:103F68007B691846796BFDF715FB36E0BB6A3B6346
:103F78003B6B03F10B034FF010021A703B6B03F11C
:103F88001603BA6BD2B21A703B6B03F11703BA6B04
:103F980092B24FEA122292B2D2B21A703B6B03F17C
:103FA8001803BA6B4FEA1242D2B21A703B6B03F194
:103FB8001903BA6B4FEA1262D2B21A70386B796B76
:103FC800FDF7CAFD7B694FF001021A717B6918463B
:103FD800FCF7FAFF034687F8473097F8473018464A
:103FE80007F14807BD4680BD80B58EB000AF786048
:103FF80013460A46FA70BB7007F1040207F114036E
:10400800104619464FF00102FEF74EF9034687F8AD
:10401800373097F83730002B3DD107F10803FB62A2
:104028007B6807F1140210461946FEF757F8034655
:1040380087F8373097F83730002B2CD1BB6A3B63B1
:104048003B6B002B04D14FF0060387F8373022E092
:10405800BB7803F02703BB703B6B03F10B03F978C4
:10406800BA780A40D1B23A6B02F10B021078BA78EA
:104078006FEA0202D2B20240D2B20A43D2B21A7036
:104088007B694FF001021A717B691846FCF79CFFA7
:10409800034687F8373097F83730184607F138075E
:1040A800BD4680BD80B58EB000AF7860396007F13D
:1040B800040207F11403104619464FF00102FEF7F7
:1040C800F3F8034687F8373097F83730002B47D195
:1040D80007F10803FB627B6807F1140210461946D2
:1040E800FDF7FCFF034687F8373097F83730002B89
:1040F80036D1BB6A3B633B6B002B04D14FF0060300
:1041080087F837302CE03B6B03F116033A68D28806
:10411800D2B21A703B6B03F117033A68D2884FEAA0
:10412800122292B2D2B21A703B6B03F118033A68AA
:104138009288D2B21A703B6B03F119033A689288DD
:104148004FEA122292B2D2B21A707B694FF0010282
:104158001A717B691846FCF737FF034687F8373032
:1041680097F83730184607F13807BD4680BD00BFBD
:1041780090B59DB000AF7860396007F1040207F18F
:104188004803104619464FF00102FEF78DF8034622
:1041980087F86F3097F86F30002B40F0D180BB6CF8
:1041A800FB6207F108033B667B6807F1480210468B
:1041B8001946FDF793FF034687F86F3097F86F307D
:1041C800002B40F0BD80FB6D002B04D14FF00403A1
:1041D80087F86F30B4E0FB6D03F10B0307F11402AD
:1041E800104619464FF01502FCF7CEFD07F12C02D8
:1041F80007F14803104619464FF01C02FCF7C4FDAE
:1042080007F12C0318463968FDF768FF034687F85D
:104218006F3097F86F30002B03D14FF0080387F801
:104228006F3097F86F30042B40F08A8007F12C0329
:104238001846FDF76FFD034687F86F3097F86F3023
:10424800002B7DD13B6CBB66BB6E03F10D0207F101
:10425800140303F10203104619464FF01302FCF74A
:1042680093FDBB6E03F10B033A7D42F02002D2B2FC
:104278001A70BB6C4FF001021A713A6D7B6B9A424F
:1042880047D0BB6E03F10B031B7803F01003002B20
:104298003FD0BC6CBB6C1846B96EFDF72BFC0346CF
:1042A80020461946FCF74EFF78667B6E002B04D13A
:1042B8004FF0020387F86F302BE0BB6C1846796E1D
:1042C800FCF752FE034687F86F30BB6C03F15403CA
:1042D800BB6697F86F30002B1BD1BB6E03F101034F
:1042E8001B782E2B15D1BB6C1B78032B04D17A6B52
:1042F800BB6C9B6A9A4201D07B6B01E04FF00003D4
:104308007B66B86E796EFDF727FCBB6C4FF0010237
:104318001A7197F86F30002B12D107F1480318462D
:10432800FDF732FD034687F86F3097F86F30002BA2
:1043380006D1BB6C1846FCF747FE034687F86F307A
:1043480097F86F30184607F17407BD4690BD00BF57
:1043580080B485B000AF0346FB714FF44053C4F2FC
:1043680001031B889BB2FB60FB79002B04D1FB681F
:1043780043F03803FB6005E0FB6823F0380343F0A3
:104388000803FB604FF44053C4F20103FA6892B289
:104398001A8007F11407BD4680BC704780B400AF8F
:1043A80000BFBD4680BC704780B400AF00BFBD46AB
:1043B80080BC704780B483B000AF0346FB7107F13F
:1043C8000C07BD4680BC704780B400AF4FF00103B6
:1043D8001846BD4680BC704780B582B000AF034622
:1043E800FB71FB799BB24FF44050C4F201001946AF
:1043F80002F05CFA00BF4FF44050C4F201004FF0E5
:10440800010102F015FB0346002BF4D04FF4405095
:10441800C4F2010002F03CFA0346DBB2184607F189
:104428000807BD4680BD00BF80B500AF4FF0FF0054
:10443800FFF7D2FF0346184680BD00BF80B582B0A3
:1044480000AF40F2FC43C2F200034FF032021A60A0
:10445800FFF7EAFFFFF7E8FF0346FB71FB79FF2B45
:1044680006D040F2FC43C2F200031B68002BF1D1D6
:10447800FB79184607F10807BD4680BD80B500AF37
:104488004FF48050C4F202004FF4006101F046FE80
:10449800FFF7CAFF80BD00BF80B584B000AF786069
:1044A800396040F2F843C2F200034FF00A021A6082
:1044B800FFF7BAFF0346FB73FB7BFF2B06D140F2E5
:1044C800F843C2F200031B68002BF1D1FB7BFE2BE3
:1044D80002D04FF000033CE04FF0FF00FFF77CFFF5
:1044E80003461A467B681A707B6803F101037B60F8
:1044F8004FF0FF00FFF770FF03461A467B681A70FB
:104508007B6803F101037B604FF0FF00FFF764FF56
:1045180003461A467B681A707B6803F101037B60C7
:104528004FF0FF00FFF758FF03461A467B681A70E2
:104538007B6803F101037B603B68A3F104033B60E4
:104548003B68002BC8D1FFF76FFFFFF76DFF4FF0F7
:104558000103184607F11007BD4680BD80B584B039
:1045680000AF78600B46FB70FFF768FF0346FF2B30
:1045780002D04FF0000338E0FB781846FFF72CFF15
:10458800FB78FD2B2FD04FF00003FB737B681B7863
:104598007A6802F101027A601846FFF71DFF7B680E
:1045A8001B787A6802F101027A601846FFF714FF57
:1045B800FB7B03F1FF33FB73FB7B002BE6D14FF052
:1045C800FF00FFF709FF4FF0FF00FFF705FFFFF7B8
:1045D8002BFF0346BB73BB7B03F01F03052B02D0E5
:1045E8004FF0000301E04FF00103184607F11007F0
:1045F800BD4680BD80B584B000AF03463960FB710D
:10460800FB795BB2002B10DAFB7903F07F03FB71B7
:104618004FF077004FF00001FFF7ECFF0346BB7344
:10462800BB7B012B01D9BB7B60E04FF48050C4F207
:1046380002004FF4006101F071FD4FF48050C4F2A4
:1046480002004FF4006101F077FDFFF7F7FE034623
:10465800FF2B02D04FF0FF0348E0FB791846FFF725
:10466800BBFE3B684FEA1363DBB21846FFF7B4FEA4
:104678003B684FEA1343DBB21846FFF7ADFE3B68D1
:104688004FEA1323DBB21846FFF7A6FE3B68DBB2FE
:104698001846FFF7A1FE4FF00103FB73FB79402B8F
:1046A80002D14FF09503FB73FB79482B02D14FF0F1
:1046B8008703FB73FB7B1846FFF78EFEFB794C2BB9
:1046C80001D1FFF7B1FE4FF00A03FB73FFF7ACFE11
:1046D8000346BB73BB7B5BB2002B06DAFB7B03F1A3
:1046E800FF33FB73FB7B002BF0D1BB7B184607F134
:1046F8001007BD4680BD00BF90B585B000AF03462A
:10470800FB71FB79002B02D04FF00103F8E040F277
:10471800F443C2F200031B78DBB203F00203002B60
:1047280006D040F2F443C2F200031B78DBB2E7E0A4
:104738004FF00000FFF70CFE4FF00A03FB7305E093
:10474800FFF772FEFB7B03F1FF33FB73FB7B002B50
:10475800F6D14FF000037B734FF040004FF000019B
:10476800FFF748FF0346012B40F0A78040F2F843CB
:10477800C2F200034FF064021A604FF048004FF491
:10478800D571FFF737FF0346012B5CD14FF00003CB
:10479800FB730DE0FC7BFFF747FE03461A4607F163
:1047A80010010B1903F8082CFB7B03F10103FB73C1
:1047B800FB7B032BEED9BB7A012B7ED1FB7AAA2B8C
:1047C8007BD100BF40F2F843C2F200031B68002B04
:1047D80008D04FF0E9004FF08041FFF70BFF034688
:1047E800002BEFD140F2F843C2F200031B68002B04
:1047F80063D04FF07A004FF00001FFF7FBFE03464D
:10480800002B5AD14FF00003FB730DE0FC7BFFF740
:104818000BFE03461A4607F110010B1903F8082C82
:10482800FB7B03F10103FB73FB7B032BEED93B7A84
:1048380003F04003002B02D04FF00C0301E04FF0CF
:1048480004037B7339E04FF0E9004FF00001FFF7F4
:10485800D1FE0346012B06D84FF002037B734FF0BD
:10486800E903BB7305E04FF001037B734FF041038D
:10487800BB7300BF40F2F843C2F200031B68002B71
:1048880008D0BB7B18464FF00001FFF7B3FE034684
:10489800002BEFD140F2F843C2F200031B68002B53
:1048A80008D04FF050004FF40071FFF7A3FE034605
:1048B800002B02D04FF000037B7340F20053C2F28A
:1048C80000037A7B1A70FFF7D9FD7B7B002B11D090
:1048D80040F2F443C2F200031B78DBB223F0010379
:1048E800DAB240F2F443C2F200031A704FF001004A
:1048F800FFF72EFD40F2F443C2F200031B78DBB24F
:10490800184607F11407BD4690BD00BF80B483B0B8
:1049180000AF0346FB71FB79002B02D04FF0010377
:1049280005E040F2F443C2F200031B78DBB21846FC
:1049380007F10C07BD4680BC704700BF80B584B046
:1049480000AFB9607A600246FA73BB73FB7B002B39
:1049580002D1BB7B002B02D14FF004035BE040F295
:10496800F443C2F200031B78DBB203F00103002B0F
:1049780002D04FF003034EE040F20053C2F20003AE
:104988001B7803F00803002B03D17B684FEA43230D
:104998007B60BB7B012B13D14FF051007968FFF787
:1049A80029FE0346002B2ED1B8684FF40071FFF79B
:1049B80073FD0346002B26D04FF00003BB7322E0A3
:1049C8004FF052007968FFF715FE0346002B1AD105
:1049D800B8684FF40071FFF75FFD0346002B0BD05A
:1049E800BB6803F50073BB60BB7B03F1FF33BB738C
:1049F800BB7B002BECD100E000BF4FF04C004FF028
:104A08000001FFF7F7FDFFF739FDBB7B002B0CBF5B
:104A180000230123DBB2184607F11007BD4680BD0D
:104A280080B584B000AFB9607A600246FA73BB7390
:104A3800FB7B002B02D1BB7B002B02D14FF0040380
:104A48007DE040F2F443C2F200031B78DBB203F0CE
:104A58000103002B02D04FF0030370E040F2F4434F
:104A6800C2F200031B78DBB203F00403002B02D070
:104A78004FF0020363E040F20053C2F200031B78D8
:104A880003F00803002B03D17B684FEA43237B60C4
:104A9800BB7B012B13D14FF058007968FFF7AAFDB3
:104AA8000346002B43D1B8684FF0FE01FFF756FDCF
:104AB8000346002B3BD04FF00003BB7337E040F2B6
:104AC8000053C2F200031B7803F00603002B05D045
:104AD800BB7B4FF0D7001946FFF78CFD4FF059000C
:104AE8007968FFF787FD0346002B20D1B8684FF09F
:104AF800FC01FFF733FD0346002B0BD0BB6803F521
:104B08000073BB60BB7B03F1FF33BB73BB7B002B24
:104B1800ECD100E000BF4FF000004FF0FD01FFF7BF
:104B28001DFD0346002B02D14FF00103BB73FFF7B5
:104B3800A5FCBB7B002B0CBF00230123DBB218466E
:104B480007F11007BD4680BD90B58BB000AF0B468E
:104B58003A600246FA71BB713B683B62FB79002BF5
:104B680002D04FF0040304E24FF0010387F8273026
:104B7800BB79052B26D13B6A1B78012B0AD0022B67
:104B88000DD0002B19D1FFF71FFC4FF0000387F859
:104B98002730ECE14FF0000387F82730E7E13B6A64
:104BA80003F10104FFF710FC0346DBB223704FF05A
:104BB800000387F8273000BFD9E14FF0040387F8D6
:104BC8002730D4E140F2F443C2F200031B78DBB291
:104BD80003F00103002B02D04FF00303C9E1BB79B6
:104BE8000E2B00F2B08101A252F823F0314C0008DC
:104BF800574C0008274D0008394D00084F4F000852
:104C08004F4F00084F4F00084F4F00084F4F000804
:104C18004F4F0008614E0008794E0008A54E000865
:104C2800D14E00081F4F00084FF48050C4F2020014
:104C38004FF4006101F080FAFFF700FC0346FF2BF8
:104C480040F086814FF0000387F8273080E14FF06D
:104C580049004FF00001FFF7CDFC0346002B40F060
:104C6800798107F10C0318464FF01001FFF714FC87
:104C78000346002B00F06E813B7B4FEA9313DBB2B7
:104C8800012B10D17B7D1A463B7D4FEA03239BB253
:104C9800D3189BB203F10103FB83FB8B4FEA8322FA
:104CA8003B681A6036E07B7C03F00F03DAB2BB7D09
:104CB8004FEAD313DBB2D318DAB27B7D03F00303D8
:104CC800DBB24FEA4303DBB2D318DBB203F10203D2
:104CD80087F826303B7D4FEA9313DBB21A46FB7CFC
:104CE8004FEA83039BB2D3189AB2BB7C03F0030349
:104CF8009BB24FEA83239BB2D3189BB203F1010303
:104D0800FB83FA8B97F82630A3F1090302FA03F222
:104D18003B681A604FF0000387F827301AE13B68B8
:104D28004FF400721A804FF0000387F827301CE117
:104D380040F20053C2F200031B7803F00403002B77
:104D480036D04FF0CD004FF00001FFF753FC03467B
:104D5800002B40F00181FFF767FB07F10C031846B1
:104D68004FF01001FFF798FB0346002B00F0F4808A
:104D78004FF0300387F8263007E0FFF755FB97F828
:104D8800263003F1FF3387F8263097F82630002BBA
:104D9800F3D1BB7D4FEA1313DBB24FF0100202FAD6
:104DA80003F23B681A604FF0000387F82730D3E01E
:104DB8004FF049004FF00001FFF71CFC0346002BA1
:104DC80040F0CA8007F10C0318464FF01001FFF7B6
:104DD80063FB0346002B00F0BF8040F20053C2F291
:104DE80000031B7803F00203002B17D0BB7D03F0F0
:104DF8003F034FEA4302FB7D4FEAD313DBB2D318DC
:104E080003F101027B7E4FEA9313DBB203F1FF3318
:104E180002FA03F31A463B681A6018E0BB7D03F0F8
:104E28007C034FEAA3039BB203F10103FA7D02F06E
:104E380003024FEAC201FA7D4FEA5212D2B28A182F
:104E480002F1010202FB03F31A463B681A604FF0B5
:104E5800000387F827307FE040F20053C2F20003D6
:104E68001A783B6A1A704FF0000387F827307CE005
:104E78004FF049004FF00001FFF7BCFB0346002B41
:104E88006CD1386A4FF01001FFF706FB0346002B80
:104E980064D04FF0000387F827305FE04FF04A00F6
:104EA8004FF00001FFF7A6FB0346002B58D1386AE4
:104EB8004FF01001FFF7F0FA0346002B50D04FF0E7
:104EC800000387F827304BE04FF07A004FF00001DD
:104ED800FFF790FB0346002B44D14FF0040387F8FB
:104EE80026300FE0FFF7A0FA03461A463B6A1A700D
:104EF8003B6A03F101033B6297F8263003F1FF3365
:104F080087F8263097F82630002BEBD14FF00003B6
:104F180087F8273026E04FF0CD004FF00001FFF76B
:104F280069FB0346002B1FD1FFF77EFA386A4FF062
:104F38004001FFF7B1FA0346002B15D04FF00003EC
:104F480087F8273010E04FF0040387F827300CE08B
:104F580000BF0AE000BF08E000BF06E000BF04E0B1
:104F680000BF02E000BF00E000BFFFF787FA97F834
:104F78002730184607F12C07BD4690BD80B400AF16
:104F88004FF00003C4F221031846BD4680BC7047A9
:104F9800148F000800000020CC040020D00400205A
:104FA8000405002080B400AF4FF46053C4F202033C
:104FB8004FF46052C4F20202126842F001021A6011
:104FC8004FF46053C4F202034FF000029A604FF4AA
:104FD8006053C4F202034FF46052C4F20202126832
:104FE80022F0847222F480321A604FF46053C4F2C3
:104FF800020343F21002C2F200425A604FF46053B7
:10500800C4F202034FF46052C4F20202126822F49E
:1050180080221A604FF46053C4F202034FF000027A
:10502800DA60BD4680BC704780B483B000AF0346E9
:10503800FB7143F60203C4F202034FF000021A7038
:1050480043F60203C4F20203FA791A7007F10C0757
:10505800BD4680BC704700BF80B582B000AF4FF03E
:1050680000033B604FF00003FB714FF00003BB717E
:105078004FF0310000F0D2FD0346BB713B6803F1ED
:1050880001033B603B68B3F5A06F02D0BB79002BEE
:10509800EED04FF0310000F0C1FD0346002B03D0E5
:1050A8004FF00103FB7102E04FF00003FB71FB7945
:1050B800184607F10807BD4680BD00BF80B485B01B
:1050C80000AF0346FB714FF00003FB604FF46053E1
:1050D800C4F202031B68FB60FB6823F0F803FB6063
:1050E800FB794FEAC303FA681343FB604FF460533C
:1050F800C4F20203FA681A6007F11407BD4680BCBF
:10510800704700BF80B483B000AF0346FB714FF017
:105118000003C4F24723FA791A6007F10C07BD4669
:1051280080BC704780B483B000AF0346FB7143F680
:105138007003C4F202034FF000021A7043F67003C2
:10514800C4F202034FF000021A70FB79012B02D05F
:10515800042B08D00FE043F67003C4F202034FF0AB
:1051680001021A7008E043F67003C4F202034FF01C
:1051780005021A7000E000BF07F10C07BD4680BCAD
:10518800704700BF80B483B000AF0346FB714FF493
:105198006863C4F24723FA791A6007F10C07BD4621
:1051A80080BC704780B485B000AFF860B9607A60A1
:1051B8003B604FF46053C4F202037A684FEA8211ED
:1051C800BA6811433A684FEA520202F1FF324FEAD5
:1051D80002421143FA681143BA694FEA02620A436C
:1051E8005A6007F11407BD4680BC704780B483B08D
:1051F80000AF0346FB714FF06003C4F24723FA790E
:105208001A6007F10C07BD4680BC704780B483B0B4
:1052180000AF786039604FF46053C4F202037A68D3
:105228004FEA82113A684FEA02720A43C3F88420AF
:1052380007F10C07BD4680BC704700BF80B483B03F
:1052480000AF0346FB714FF06803C4F24723FA79B5
:105258001A6007F10C07BD4680BC704780B483B064
:1052680000AF0346FB714FF04C03C4F24723FA79B1
:105278001A6007F10C07BD4680BC704780B485B042
:1052880000AF786039604FF00003FB604FF4605363
:10529800C4F202039B68FB60FB6823F0EC63FB60CD
:1052A8007A683B681343FA681343FB604FF4605312
:1052B800C4F20203FA689A6007F11407BD4680BC7D
:1052C800704700BF80B485B000AF786039604FF098
:1052D8000003FB604FF46053C4F202039B68FB6059
:1052E800FB6823F07843FB607A683B681343FA68ED
:1052F8001343FB604FF46053C4F20203FA689A60E8
:1053080007F11407BD4680BC704700BF80B485B064
:1053180000AF78604FF00003FB604FF46053C4F2B5
:1053280002039B68FB60FB6823F00303FB60FA68D9
:105338007B681343FB604FF46053C4F20203FA68BE
:105348009A6007F11407BD4680BC704780B400AF6F
:105358004FF46053C4F202039B68DBB203F00C0302
:10536800DBB21846BD4680BC704700BF80B485B02C
:1053780000AF78604FF00003FB604FF46053C4F255
:1053880002039B68FB60FB6823F0F003FB60FA688C
:105398007B681343FB604FF46053C4F20203FA685E
:1053A8009A6007F11407BD4680BC704780B485B089
:1053B80000AF78604FF00003FB604FF46053C4F215
:1053C80002039B68FB60FB6823F4E053FB60FA6808
:1053D8007B681343FB604FF46053C4F20203FA681E
:1053E8009A6007F11407BD4680BC704780B485B049
:1053F80000AF78604FF00003FB604FF46053C4F2D5
:1054080002039B68FB60FB6823F46043FB607B68D6
:105418004FEAC303FA681343FB604FF46053C4F2C6
:105428000203FA689A6007F11407BD4680BC70470A
:1054380080B489B000AF78604FF00003BB614FF0D3
:1054480000037B614FF00003FB614FF002033B61F7
:105458004FF00003FB604FF00203BB604FF4605352
:10546800C4F202039B6803F00C03BB61BB69042B05
:105478000AD0082B0FD0002B60D17A684FF4105354
:10548800C0F2F403136060E07A684FF49053C0F2FE
:105498007A03136059E04FF46053C4F202035B6867
:1054A80003F480034FEA9353FB604FF46053C4F254
:1054B80002035B6803F03F03BB60FB68002B14D05A
:1054C8004FF49053C0F27A03BA68B3FBF2F24FF488
:1054D8006053C4F20203596847F6C0730B404FEAA1
:1054E800931303FB02F3FB6113E04FF41053C0F274
:1054F800F403BA68B3FBF2F24FF46053C4F2020348
:10550800596847F6C0730B404FEA931303FB02F345
:10551800FB614FF46053C4F202035B6803F4403349
:105528004FEA134303F101034FEA43033B61FA696E
:105538003B69B2FBF3F27B681A6006E07A684FF4C5
:105548001053C0F2F403136000BF4FF46053C4F269
:1055580002039B6803F0F003BB61BB694FEA1313B6
:10556800BB6140F29003C2F20003BA699B181B7832
:10557800DBB27B617B681A687B6922FA03F27B687D
:105588005A604FF46053C4F202039B6803F4E0537B
:10559800BB61BB694FEA9323BB6140F29003C2F23F
:1055A8000003BA699B181B78DBB27B617B685A6879
:1055B8007B6922FA03F27B689A604FF46053C4F265
:1055C80002039B6803F46043BB61BB694FEA533332
:1055D800BB6140F29003C2F20003BA699B181B78C2
:1055E800DBB27B617B685A687B6922FA03F27B68CD
:1055F800DA6007F12407BD4680BC704780B485B0E7
:1056080000AF78604FF00003FB607B6803F44073E1
:10561800B3F5407F17D14FF46053C4F202039B687F
:10562800FB60FB6823F4F813FB607B6823F070438E
:1056380023F44073FA681343FB604FF46053C4F2D9
:105648000203FA689A604FF46053C4F202034FF4FD
:105658006052C4F20202116F7A684FEA02524FEAAE
:1056680012520A431A6707F11407BD4680BC7047F7
:1056780080B483B000AF0346FB7140F63C63C4F2CC
:105688004723FA791A6007F10C07BD4680BC7047BA
:1056980080B483B000AF0346FB714FF46463C4F277
:1056A8004723FA791A6007F10C07BD4680BC70479A
:1056B80080B483B000AF78604FF4AE73C4F2472370
:1056C8007A681A6007F10C07BD4680BC704700BFB6
:1056D80080B483B000AF78600B46FB70FB78002B7A
:1056E8000CD04FF46053C4F202034FF46052C4F27A
:1056F8000202116B7A680A431A630DE04FF4605393
:10570800C4F202034FF46052C4F20202116B7A68C9
:105718006FEA02020A401A6307F10C07BD4680BC13
:10572800704700BF80B483B000AF78600B46FB7051
:10573800FB78002B0CD04FF46053C4F202034FF4F3
:105748006052C4F20202516B7A680A435A630DE050
:105758004FF46053C4F202034FF46052C4F20202E1
:10576800516B7A686FEA02020A405A6307F10C0724
:10577800BD4680BC704700BF80B483B000AF78607E
:105788000B46FB70FB78002B0CD04FF46053C4F22F
:1057980002034FF46052C4F20202916B7A680A4322
:1057A8009A630DE04FF46053C4F202034FF4605261
:1057B800C4F20202916B7A686FEA02020A409A63A5
:1057C80007F10C07BD4680BC704700BF80B483B0AA
:1057D80000AF78600B46FB70FB78002B0CD04FF4C1
:1057E8006053C4F202034FF46052C4F20202116C17
:1057F8007A680A431A640DE04FF46053C4F2020356
:105808004FF46052C4F20202116C7A686FEA020225
:105818000A401A6407F10C07BD4680BC704700BFF8
:1058280080B483B000AF78600B46FB70FB78002B28
:105838000CD04FF46053C4F202034FF46052C4F228
:105848000202516C7A680A435A640DE04FF46053BF
:10585800C4F202034FF46052C4F20202516C7A6837
:105868006FEA02020A405A6407F10C07BD4680BC81
:10587800704700BF80B483B000AF78600B46FB7000
:10588800FB78002B0CD04FF46053C4F202034FF4A2
:105898006052C4F2020211697A680A431A610DE083
:1058A8004FF46053C4F202034FF46052C4F2020290
:1058B80011697A686FEA02020A401A6107F10C0757
:1058C800BD4680BC704700BF80B483B000AF78602D
:1058D8000B46FB70FB78002B0CD04FF46053C4F2DE
:1058E80002034FF46052C4F2020251697A680A4313
:1058F8005A610DE04FF46053C4F202034FF4605252
:10590800C4F2020251697A686FEA02020A405A61D7
:1059180007F10C07BD4680BC704700BF80B483B058
:1059280000AF78600B46FB70FB78002B0CD04FF46F
:105938006053C4F202034FF46052C4F20202916948
:105948007A680A439A610DE04FF46053C4F2020387
:105958004FF46052C4F2020291697A686FEA020257
:105968000A409A6107F10C07BD4680BC704700BF2A
:1059780080B483B000AF78600B46FB70FB78002BD7
:105988000CD04FF46053C4F202034FF46052C4F2D7
:105998000202116A7A680A431A620DE04FF46053F2
:1059A800C4F202034FF46052C4F20202116A7A6828
:1059B8006FEA02020A401A6207F10C07BD4680BC72
:1059C800704700BF80B483B000AF78600B46FB70AF
:1059D800FB78002B0CD04FF46053C4F202034FF451
:1059E8006052C4F20202516A7A680A435A620DE0B0
:1059F8004FF46053C4F202034FF46052C4F202023F
:105A0800516A7A686FEA02020A405A6207F10C0783
:105A1800BD4680BC704700BF80B483B000AF7860DB
:105A28000B46FB70FB78002B0CD04FF46053C4F28C
:105A380002034FF46052C4F20202116D7A680A43FD
:105A48001A650DE04FF46053C4F202034FF460523C
:105A5800C4F20202116D7A686FEA02020A401A65FE
:105A680007F10C07BD4680BC704700BF80B483B007
:105A780000AF78600B46FB70FB78002B0CD04FF41E
:105A88006053C4F202034FF46052C4F20202516D33
:105A98007A680A435A650DE04FF46053C4F2020372
:105AA8004FF46052C4F20202516D7A686FEA020242
:105AB8000A405A6507F10C07BD4680BC704700BF15
:105AC80080B483B000AF78600B46FB70FB78002B86
