:020000040800F2
:1000000000000220351A0008851A0008851A000829
:10001000851A0008851A0008851A000800000000EB
:10002000000000000000000000000000851A000829
:10003000851A000800000000851A0008851A0008CB
:10004000851A0008851A0008851A0008851A000814
:10005000851A0008851A0008851A0008851A000804
:10006000851A0008851A0008851A0008851A0008F4
:10007000851A0008851A0008851A0008851A0008E4
:10008000851A0008851A0008851A0008851A0008D4
:10009000851A0008851A0008851A0008851A0008C4
:1000A000851A0008851A0008851A0008851A0008B4
:1000B000851A0008851A0008851A0008851A0008A4
:1000C000851A0008851A0008851A0008851A000894
:1000D000851A0008851A0008851A0008851A000884
:1000E000851A0008851A0008851A0008851A000874
:1000F000851A0008851A0008851A0008851A000864
:10010000851A0008851A0008851A0008851A000853
:10011000851A0008851A0008851A0008851A000843
:10012000851A0008851A0008851A0008851A000833
:10013000851A0008851A0008851A0008851A000823
:10014000851A0008851A0008851A0008851A000813
:10015000851A0008851A0008851A0008851A000803
:10016000851A0008851A0008851A0008851A0008F3
:10017000851A0008851A0008851A0008851A0008E3
:08018000851A0008851A000829
:1001880010B5054C237833B9044810B10448AFF3CF
:1001980000800121217010BD6004002000000000D3
:1001A8001420000808B5064B1BB106480649AFF3F2
:1001B80000800648016811B1054A02B1904708BDA0
:1001C8000000000014200008640400205C040020E3
:1001D80000000000154B002B08BF134B9D46A3F5EC
:1001E800803A00218B460F461348144A121A01F030
:1001F8001FFD0F4B002B00D098470E4B002B00D053
:1002080098470020002104460D4600200C49002292
:10021800002301F035FC01F0C1FC2046294600F01E
:10022800B9F801F083FC00BF0000080000000000DE
:10023800000000000000000060040020840400208A
:10024800551B000880B483B000AF786000E000BFA1
:100258007B68002B0CBF00220122D2B203F1FF33CE
:100268007B60002AF3D107F10C07BD4680BC7047BC
:1002780080B500AF4FF008004FF0010100F0FEFD1F
:1002880040F27C43C2F200034FF470421A6040F21D
:100298007C43C2F200034FF001021A7140F27C4322
:1002A800C2F200034FF003025A7140F27C43C2F2DB
:1002B80000034FF000029A7140F27C43C2F200033F
:1002C8004FF00002DA714FF44060C4F2020040F2CD
:1002D8007C41C2F2000101F0BDF980BD80B582B059
:1002E80000AF4FF000037B601FE040F20403C2F24E
:1002F80000037A6833F812304FF44060C4F2020009
:10030800194601F0E1FA4FF41060C0F23D00FFF722
:1003180099FF4FF44060C4F202004FF4704101F0BD
:10032800E1FA7B6803F101037B607B68032BDCDD6A
:1003380007F10807BD4680BD80B582B000AF4FF019
:1003480000037B601FE04FF44060C4F202004FF4EA
:10035800704101F0B9FA44F24020C0F20F00FFF7F3
:1003680071FF4FF44060C4F202004FF4704101F095
:10037800B9FA44F24020C0F20F00FFF763FF7B6830
:1003880003F101037B607B68032BDCDD07F10807C1
:10039800BD4680BD80B500AFFFF76AFFFFF79EFF3F
:1003A800FFF7CAFFFAE700BF80B500AF4FF46D430F
:1003B800CEF200034FF46D42CEF20002D2F888204C
:1003C80042F47002C3F888204FF46053C4F2020369
:1003D8004FF46052C4F20202126842F001021A603D
:1003E8004FF46053C4F202034FF000029A604FF4D6
:1003F8006053C4F202034FF46052C4F2020212685E
:1004080022F0847222F480321A604FF46053C4F2EE
:10041800020343F21002C2F200425A604FF46053E2
:10042800C4F202034FF46052C4F20202126822F4CA
:1004380080221A604FF46053C4F202034FF00002A6
:10044800DA6000F0C1F84FF46D43CEF200034FF0CC
:1004580000629A6080BD00BF80B487B000AF4FF0E3
:1004680000033B614FF000037B614FF00203FB6028
:100478004FF00003BB604FF002037B604FF4605302
:10048800C4F202039B6803F00C033B613B69042B35
:100498000DD0082B15D0002B69D140F20C03C2F205
:1004A80000034FF41052C0F2F4021A6069E040F2FF
:1004B8000C03C2F200034FF49052C0F27A021A60A1
:1004C8005FE04FF46053C4F202035B6803F48003F7
:1004D8004FEA9353BB604FF46053C4F202035B6866
:1004E80003F03F037B60BB68002B14D04FF490539C
:1004F800C0F27A037A68B3FBF2F24FF46053C4F2A5
:100508000203596847F6C0730B404FEA931303FB85
:1005180002F37B6113E04FF41053C0F2F4037A68DE
:10052800B3FBF2F24FF46053C4F20203596847F682
:10053800C0730B404FEA931303FB02F37B614FF444
:100548006053C4F202035B6803F440334FEA134379
:1005580003F101034FEA4303FB607A69FB68B2FBCE
:10056800F3F240F20C03C2F200031A6009E040F211
:100578000C03C2F200034FF41052C0F2F4021A60E6
:1005880000BF4FF46053C4F202039B6803F0F0030A
:100598004FEA131240F21003C2F200039B5CDBB275
:1005A8003B6140F20C03C2F200031A683B6922FA6D
:1005B80003F240F20C03C2F200031A6007F11C07B1
:1005C800BD4680BC704700BF80B483B000AF4FF019
:1005D80000037B604FF000033B604FF46053C4F2AC
:1005E80002034FF46052C4F20202126842F48032ED
:1005F8001A604FF46053C4F202031B6803F400331B
:100608003B607B6803F101037B603B68002B03D1EF
:100618007B68B3F5A06FECD14FF46053C4F20203CA
:100628001B6803F40033002B03D04FF001033B6039
:1006380002E04FF000033B603B68012B40F08280F2
:100648004FF46053C4F202034FF46052C4F2020242
:10065800126C42F080521A644FF4E043C4F2000373
:100668004FF4E042C4F20002126842F480421A6079
:100678004FF46053C4F202034FF46052C4F2020212
:1006880092689A604FF46053C4F202034FF46052C8
:10069800C4F20202926842F400429A604FF4605336
:1006A800C4F202034FF46052C4F20202926842F4A8
:1006B800A0529A604FF46053C4F2020345F2194203
:1006C800C0F240725A604FF46053C4F202034FF410
:1006D8006052C4F20202126842F080721A6000BFCF
:1006E8004FF46053C4F202031B6803F00073002B3D
:1006F800F6D04FF47053C4F2020340F205621A6058
:100708004FF46053C4F202034FF46052C4F2020281
:10071800926822F003029A604FF46053C4F2020315
:100728004FF46052C4F20202926842F002029A60E8
:1007380000BF4FF46053C4F202039B6803F00C033C
:10074800082BF6D107F10C07BD4680BC704700BFE7
:1007580080B400AF4FF46053C4F202034FF4605208
:10076800C4F20202126842F001021A604FF46053A8
:10077800C4F202034FF000029A604FF46053C4F2CF
:1007880002034FF46052C4F20202126822F084722B
:1007980022F480321A604FF46053C4F2020343F229
:1007A8001002C2F200425A604FF46053C4F20203CE
:1007B8004FF46052C4F20202126822F480221A60D6
:1007C8004FF46053C4F202034FF00002DA60BD46F2
:1007D80080BC704780B483B000AF0346FB7143F61A
:1007E8000203C4F202034FF000021A7043F6020338
:1007F800C4F20203FA791A7007F10C07BD4680BCEF
:10080800704700BF80B582B000AF4FF000033B6077
:100818004FF00003FB714FF00003BB714FF0310044
:1008280000F0D2FD0346BB713B6803F101033B6056
:100838003B68B3F5A06F02D0BB79002BEED04FF028
:10084800310000F0C1FD0346002B03D04FF0010337
:10085800FB7102E04FF00003FB71FB79184607F1CA
:100868000807BD4680BD00BF80B485B000AF034611
:10087800FB714FF00003FB604FF46053C4F20203B6
:100888001B68FB60FB6823F0F803FB60FB794FEA09
:10089800C303FA681343FB604FF46053C4F20203C6
:1008A800FA681A6007F11407BD4680BC704700BF9C
:1008B80080B483B000AF0346FB714FF00003C4F26D
:1008C8004723FA791A6007F10C07BD4680BC7047C8
:1008D80080B483B000AF0346FB7143F67003C4F2E3
:1008E80002034FF000021A7043F67003C4F20203C9
:1008F8004FF000021A70FB79012B02D0042B08D0AC
:100908000FE043F67003C4F202034FF001021A70BD
:1009180008E043F67003C4F202034FF005021A70B0
:1009280000E000BF07F10C07BD4680BC704700BF60
:1009380080B483B000AF0346FB714FF46863C4F220
:100948004723FA791A6007F10C07BD4680BC704747
:1009580080B485B000AFF860B9607A603B604FF44E
:100968006053C4F202037A684FEA8211BA681143ED
:100978003A684FEA520202F1FF324FEA024211434B
:10098800FA681143BA694FEA02620A435A6007F1EA
:100998001407BD4680BC704780B483B000AF0346DF
:1009A800FB714FF06003C4F24723FA791A6007F12C
:1009B8000C07BD4680BC704780B483B000AF786038
:1009C80039604FF46053C4F202037A684FEA821127
:1009D8003A684FEA02720A43C3F8842007F10C0709
:1009E800BD4680BC704700BF80B483B000AF0346EB
:1009F800FB714FF06803C4F24723FA791A6007F1D4
:100A08000C07BD4680BC704780B483B000AF034676
:100A1800FB714FF04C03C4F24723FA791A6007F1CF
:100A28000C07BD4680BC704780B485B000AF7860C5
:100A380039604FF00003FB604FF46053C4F20203C7
:100A48009B68FB60FB6823F0EC63FB607A683B689B
:100A58001343FA681343FB604FF46053C4F2020374
:100A6800FA689A6007F11407BD4680BC704700BF5A
:100A780080B485B000AF786039604FF00003FB6048
:100A88004FF46053C4F202039B68FB60FB6823F0D9
:100A98007843FB607A683B681343FA681343FB604A
:100AA8004FF46053C4F20203FA689A6007F114071E
:100AB800BD4680BC704700BF80B485B000AF786089
:100AC8004FF00003FB604FF46053C4F202039B68CD
:100AD800FB60FB6823F00303FB60FA687B68134341
:100AE800FB604FF46053C4F20203FA689A6007F19E
:100AF8001407BD4680BC704780B400AF4FF4605304
:100B0800C4F202039B68DBB203F00C03DBB21846A5
:100B1800BD4680BC704700BF80B485B000AF786028
:100B28004FF00003FB604FF46053C4F202039B686C
:100B3800FB60FB6823F0F003FB60FA687B681343F3
:100B4800FB604FF46053C4F20203FA689A6007F13D
:100B58001407BD4680BC704780B485B000AF78608C
:100B68004FF00003FB604FF46053C4F202039B682C
:100B7800FB60FB6823F4E053FB60FA687B6813436F
:100B8800FB604FF46053C4F20203FA689A6007F1FD
:100B98001407BD4680BC704780B485B000AF78604C
:100BA8004FF00003FB604FF46053C4F202039B68EC
:100BB800FB60FB6823F46043FB607B684FEAC30378
:100BC800FA681343FB604FF46053C4F20203FA68F7
:100BD8009A6007F11407BD4680BC704780B489B09D
:100BE80000AF78604FF00003BB614FF000037B61FA
:100BF8004FF00003FB614FF002033B614FF000032D
:100C0800FB604FF00203BB604FF46053C4F2020371
:100C18009B6803F00C03BB61BB69042B0AD0082B4B
:100C28000FD0002B60D17A684FF41053C0F2F40350
:100C3800136060E07A684FF49053C0F27A0313604F
:100C480059E04FF46053C4F202035B6803F4800375
:100C58004FEA9353FB604FF46053C4F202035B689E
:100C680003F03F03BB60FB68002B14D04FF4905394
:100C7800C0F27A03BA68B3FBF2F24FF46053C4F2DD
:100C88000203596847F6C0730B404FEA931303FBFE
:100C980002F3FB6113E04FF41053C0F2F403BA6897
:100CA800B3FBF2F24FF46053C4F20203596847F6FB
:100CB800C0730B404FEA931303FB02F3FB614FF43D
:100CC8006053C4F202035B6803F440334FEA1343F2
:100CD80003F101034FEA43033B61FA693B69B2FB45
:100CE800F3F27B681A6006E07A684FF41053C0F29A
:100CF800F403136000BF4FF46053C4F202039B680F
:100D080003F0F003BB61BB694FEA1313BB6140F208
:100D18002003C2F20003BA699B181B78DBB27B611F
:100D28007B681A687B6922FA03F27B685A604FF481
:100D38006053C4F202039B6803F4E053BB61BB69D0
:100D48004FEA9323BB6140F22003C2F20003BA6961
:100D58009B181B78DBB27B617B685A687B6922FA37
:100D680003F27B689A604FF46053C4F202039B68F5
:100D780003F46043BB61BB694FEA5333BB6140F284
:100D88002003C2F20003BA699B181B78DBB27B61AF
:100D98007B685A687B6922FA03F27B68DA6007F19C
:100DA8002407BD4680BC704780B485B000AF78602A
:100DB8004FF00003FB607B6803F44073B3F5407F9A
:100DC80017D14FF46053C4F202039B68FB60FB68C1
:100DD80023F4F813FB607B6823F0704323F440731B
:100DE800FA681343FB604FF46053C4F20203FA68D5
:100DF8009A604FF46053C4F202034FF46052C4F295
:100E08000202116F7A684FEA02524FEA12520A43FD
:100E18001A6707F11407BD4680BC704780B483B0D9
:100E280000AF0346FB7140F63C63C4F24723FA79EE
:100E38001A6007F10C07BD4680BC704780B483B0C8
:100E480000AF0346FB714FF46463C4F24723FA7999
:100E58001A6007F10C07BD4680BC704780B483B0A8
:100E680000AF78604FF4AE73C4F247237A681A6013
:100E780007F10C07BD4680BC704700BF80B483B043
:100E880000AF78600B46FB70FB78002B0CD04FF45A
:100E98006053C4F202034FF46052C4F20202116BB1
:100EA8007A680A431A630DE04FF46053C4F20203F0
:100EB8004FF46052C4F20202116B7A686FEA0202C0
:100EC8000A401A6307F10C07BD4680BC704700BF93
:100ED80080B483B000AF78600B46FB70FB78002BC2
:100EE8000CD04FF46053C4F202034FF46052C4F2C2
:100EF8000202516B7A680A435A630DE04FF460535B
:100F0800C4F202034FF46052C4F20202516B7A68D1
:100F18006FEA02020A405A6307F10C07BD4680BC1B
:100F2800704700BF80B483B000AF78600B46FB7099
:100F3800FB78002B0CD04FF46053C4F202034FF43B
:100F48006052C4F20202916B7A680A439A630DE018
:100F58004FF46053C4F202034FF46052C4F2020229
:100F6800916B7A686FEA02020A409A6307F10C07EC
:100F7800BD4680BC704700BF80B483B000AF7860C6
:100F88000B46FB70FB78002B0CD04FF46053C4F277
:100F980002034FF46052C4F20202116C7A680A43E9
:100FA8001A640DE04FF46053C4F202034FF4605228
:100FB800C4F20202116C7A686FEA02020A401A64EB
:100FC80007F10C07BD4680BC704700BF80B483B0F2
:100FD80000AF78600B46FB70FB78002B0CD04FF409
:100FE8006053C4F202034FF46052C4F20202516C1F
:100FF8007A680A435A640DE04FF46053C4F202035E
:101008004FF46052C4F20202516C7A686FEA02022D
:101018000A405A6407F10C07BD4680BC704700BF00
:1010280080B483B000AF78600B46FB70FB78002B70
:101038000CD04FF46053C4F202034FF46052C4F270
:10104800020211697A680A431A610DE04FF460538D
:10105800C4F202034FF46052C4F2020211697A68C2
:101068006FEA02020A401A6107F10C07BD4680BC0C
:10107800704700BF80B483B000AF78600B46FB7048
:10108800FB78002B0CD04FF46053C4F202034FF4EA
:101098006052C4F2020251697A680A435A610DE04B
:1010A8004FF46053C4F202034FF46052C4F20202D8
:1010B80051697A686FEA02020A405A6107F10C071F
:1010C800BD4680BC704700BF80B483B000AF786075
:1010D8000B46FB70FB78002B0CD04FF46053C4F226
:1010E80002034FF46052C4F2020291697A680A431B
:1010F8009A610DE04FF46053C4F202034FF460525A
:10110800C4F2020291697A686FEA02020A409A619F
:1011180007F10C07BD4680BC704700BF80B483B0A0
:1011280000AF78600B46FB70FB78002B0CD04FF4B7
:101138006053C4F202034FF46052C4F20202116A0F
:101148007A680A431A620DE04FF46053C4F202034E
:101158004FF46052C4F20202116A7A686FEA02021E
:101168000A401A6207F10C07BD4680BC704700BFF1
:1011780080B483B000AF78600B46FB70FB78002B1F
:101188000CD04FF46053C4F202034FF46052C4F21F
:101198000202516A7A680A435A620DE04FF46053BA
:1011A800C4F202034FF46052C4F20202516A7A6830
:1011B8006FEA02020A405A6207F10C07BD4680BC7A
:1011C800704700BF80B483B000AF78600B46FB70F7
:1011D800FB78002B0CD04FF46053C4F202034FF499
:1011E8006052C4F20202116D7A680A431A650DE072
:1011F8004FF46053C4F202034FF46052C4F2020287
:10120800116D7A686FEA02020A401A6507F10C0745
:10121800BD4680BC704700BF80B483B000AF786023
:101228000B46FB70FB78002B0CD04FF46053C4F2D4
:1012380002034FF46052C4F20202516D7A680A4305
:101248005A650DE04FF46053C4F202034FF4605244
:10125800C4F20202516D7A686FEA02020A405A65C6
:1012680007F10C07BD4680BC704700BF80B483B04F
:1012780000AF78600B46FB70FB78002B0CD04FF466
:101288006053C4F202034FF46052C4F20202916D3B
:101298007A680A439A650DE04FF46053C4F202037A
:1012A8004FF46052C4F20202916D7A686FEA02024A
:1012B8000A409A6507F10C07BD4680BC704700BF1D
:1012C80080B483B000AF78600B46FB70FB78002BCE
:1012D8000CD04FF46053C4F202034FF46052C4F2CE
:1012E8000202116E7A680A431A660DE04FF46053E1
:1012F800C4F202034FF46052C4F20202116E7A681B
:101308006FEA02020A401A6607F10C07BD4680BC64
:10131800704700BF80B483B000AF78600B46FB70A5
:10132800FB78002B0CD04FF46053C4F202034FF447
:101338006052C4F20202516E7A680A435A660DE09E
:101348004FF46053C4F202034FF46052C4F2020235
:10135800516E7A686FEA02020A405A6607F10C0772
:10136800BD4680BC704700BF80B483B000AF024662
:101378000B46FA71BB71BB79002B0ED043F60D03F7
:10138800C4F2020343F60D02C4F202021278D1B28B
:10139800FA790A43D2B21A7010E043F60D03C4F288
:1013A800020343F60D02C4F202021278D1B2FA79AE
:1013B8006FEA0202D2B20A40D2B21A7007F10C07E1
:1013C800BD4680BC704700BF80B487B000AF0346FD
:1013D800FB714FF00003FB604FF000037B614FF09F
:1013E8000003FB74FB794FEA5313DBB2FB60FB6825
:1013F800012B06D14FF46053C4F202031B687B61D2
:101408000FE0FB68022B06D14FF46053C4F20203CD
:101418001B6F7B6105E04FF46053C4F202035B6FFE
:101428007B61FB7903F01F03FB60FB687A6922FA92
:1014380003F303F00103002B03D04FF00103FB7407
:1014480002E04FF00003FB74FB7C184607F11C0711
:10145800BD4680BC704700BF80B400AF4FF46053F6
:10146800C4F202034FF46052C4F20202526F42F017
:1014780080725A67BD4680BC704700BF80B485B093
:1014880000AF0346FB714FF00003FB734FF460534A
:10149800C4F20203DA68FB791340002B03D04FF043
:1014A8000103FB7302E04FF00003FB73FB7B18465C
:1014B80007F11407BD4680BC704700BF80B483B0F5
:1014C80000AF0346FB7143F60E03C4F20203FA7938
:1014D8001A7007F10C07BD4680BC704780B582B012
:1014E80000AF78607A684FF00003C4F202039A42B2
:1014F8000CD14FF001004FF00101FFF791FD4FF0C3
:1015080001004FF00001FFF78BFD9EE07A684FF471
:101518008063C4F202039A420CD14FF002004FF0EC
:101528000101FFF77DFD4FF002004FF00001FFF7CA
:1015380077FD8AE07A684FF40063C4F202039A42A6
:101548000CD14FF004004FF00101FFF769FD4FF097
:1015580004004FF00001FFF763FD76E07A684FF46E
:101568004063C4F202039A420CD14FF008004FF0D6
:101578000101FFF755FD4FF008004FF00001FFF79C
:101588004FFD62E07A684FF48053C4F202039A4236
:101598000CD14FF010004FF00101FFF741FD4FF063
:1015A80010004FF00001FFF73BFD4EE07A684FF462
:1015B800A053C4F202039A420CD14FF020004FF01E
:1015C8000101FFF72DFD4FF020004FF00001FFF75C
:1015D80027FD3AE07A684FF4C053C4F202039A42F6
:1015E8000CD14FF040004FF00101FFF719FD4FF00B
:1015F80040004FF00001FFF713FD26E07A684FF432
:10160800E053C4F202039A420CD14FF080004FF02D
:101618000101FFF705FD4FF080004FF00001FFF7D3
:10162800FFFC12E07A684FF40053C4F202039A42B6
:101638000BD14FF480704FF00101FFF7F1FC4FF42C
:1016480080704FF00001FFF7EBFC07F10807BD467B
:1016580080BD00BF80B487B000AF786039604FF0BC
:1016680000037B614FF000033B614FF00003FB6018
:101678004FF000037B6186E07B694FF0010202FABC
:1016880003F33B613B681A683B691340FB60FA68E7
:101698003B699A4273D17B681A687B694FEA4303B6
:1016A8004FF0030101FA03F36FEA03031A407B6862
:1016B8001A607B681A683B681B7919467B694FEA90
:1016C800430301FA03F31A437B681A603B681B79EA
:1016D800012B03D03B681B79022B34D17B689A68B5
:1016E8007B694FEA43034FF0030101FA03F36FEA02
:1016F80003031A407B689A607B689A683B685B7949
:1017080019467B694FEA430301FA03F31A437B68DE
:101718009A607B685A687B699BB24FF0010101FAB5
:1017280003F36FEA03031A407B685A607B685A68C0
:101738003B689B7919467B699BB201FA03F39BB21C
:101748001A437B685A607B68DA687B699BB24FEA08
:1017580043034FF0030101FA03F36FEA03031A404E
:101768007B68DA607B68DA683B68DB7919467B69F5
:101778004FEA430301FA03F31A437B68DA607B6993
:1017880003F101037B617B690F2B7FF675AF07F1CE
:101798001C07BD4680BC704780B483B000AF78603A
:1017A8007B684FF6FF721A607B684FF000021A716F
:1017B8007B684FF000025A717B684FF000029A7103
:1017C8007B684FF00002DA7107F10C07BD4680BC58
:1017D800704700BF80B485B000AF78600B467B804F
:1017E8004FF48033FB607A88FB681343FB60FA6828
:1017F8007B68DA617A887B68DA61FA687B68DA6123
:101808007B68DB69FB607B68DB69FB6007F11407B9
:10181800BD4680BC704700BF80B485B000AF78601B
:101828000B467B804FF00003FB737B681A697B884B
:101838001340002B03D04FF00103FB7302E04FF07D
:101848000003FB73FB7B184607F11407BD4680BCF9
:10185800704700BF80B483B000AF78607B681B69B5
:101868009BB2184607F10C07BD4680BC704700BF05
:1018780080B485B000AF78600B467B804FF00003E2
:10188800FB737B685A697B881340002B03D04FF0A9
:101898000103FB7302E04FF00003FB73FB7B184668
:1018A80007F11407BD4680BC704700BF80B483B001
:1018B80000AF78607B685B699BB2184607F10C073C
:1018C800BD4680BC704700BF80B483B000AF78606D
:1018D8000B467B807B687A881A8307F10C07BD4624
:1018E80080BC704780B483B000AF78600B467B80C3
:1018F8007B687A885A8307F10C07BD4680BC70471D
:1019080080B483B000AF786013460A467A807B7053
:101918007B78002B03D07B687A881A8302E07B6887
:101928007A885A8307F10C07BD4680BC704700BF10
:1019380080B483B000AF78600B467B807A887B6880
:101948005A6107F10C07BD4680BC704780B483B06C
:1019580000AF78600B467B807B685A697B885A4069
:101968007B685A6107F10C07BD4680BC704700BF11
:1019780080B485B000AF786013460A467A807B70E1
:101988004FF00003FB604FF00003BB607A787B8860
:1019980003F007034FEA830302FA03F3FB607B8833
:1019A8004FEAD3039BB21A467B884FEAD3039BB214
:1019B80019467B6801F1080153F821107B8803F070
:1019C80007034FEA83034FF00F0000FA03F36FEAAF
:1019D800030319407B6802F1080243F822107B8850
:1019E8004FEAD3039BB21A467B6802F1080253F808
:1019F8002220FB681343BB607B884FEAD3039BB26A
:101A08001A467B6802F10802B96843F8221007F108
:101A18001407BD4680BC7047442000080000002021
:101A28005C0400206004002084040020002100F0F1
:101A380004B80D4B5B58435004310C480C4B42180A
:101A48009A42FFF4F6AF0B4A00F003B8002342F8BD
:101A5800043B094B9A42FFF4F9AFFEF7A5FC00F0EE
:101A68009DF8FEF797FC704744200008000000200E
:101A78005C0400206004002084040020FFF7FEBFFF
:101A88002DE9F041274C2568D5F8484184B0074630
:101A9800002C41D066681F2E1CDD234810B94FF07A
:101AA800FF301FE04FF4C870039102920193AFF327
:101AB80000800399029A019B04460028EFD0D5F8CC
:101AC8004861002060602660C5F84841C4F8880174
:101AD800C4F88C01656847B9A81C013544F8201082
:101AE8006560002004B0BDE8F081D4F88861012069
:101AF80004EB850800FA05F00643022FC8F8882091
:101B0800C4F88861C8F80831E6D1D4F88C3143EAC2
:101B18000002C4F88C21DFE705F5A674C5F8484132
:101B2800B8E700BF102000080000000008B5002139
:101B3800044600F01DF9044B1868C16B01B18847D1
:101B4800204600F072EA00BF1020000870B5114B63
:101B5800114C181B811018D004EB81044E1E354619
:101B680054F8042D06F00106904775B126B154F8D3
:101B7800043D9847013D08D054F8040D8047013DC5
:101B880054F8041D8847013DF6D1BDE8704000F0C7
:101B980045BA00BF4420000840200008F8B5204F8F
:101BA800204C381B871017D07A1E2368012502F0B5
:101BB80001069847AF420FD02EB154F8041F0225F2
:101BC8008847AF4208D0606880470235A268261D62
:101BD80090470834AF42F6D1134F144C00F018FA6E
:101BE8003B1B9F1018D07D1E216805F001060125BA
:101BF8008847AF4211D02EB154F8040F0225804710
:101C0800AF420BD0626890470235A368261D9847FB
:101C18000834AF42F6D1F8BDF8BDF8BDF8BD00BF35
:101C28003820000838200008402000083820000824
:101C3800F0B48407034600F08E80541E002A00F09A
:101C48008880E507CEB211D41A46671E02F8016BE8
:101C58001346154692070FD0002C7AD003F8016B73
:101C68009A073C461D4607D0013CEDE7034603F8BA
:101C7800016B9A071D46F7D1032C52D9CEB246EA1A
:101C880006270F2C47EA07432DD9A4F1100217465F
:101C98000F2FC2F300162B606B60AB60EB6005F191
:101CA800100216D93EB1103F136053609360D360A1
:101CB80010320F2F0DD9203F02F110061360536028
:101CC8009360D360136153619361D36120320F2F06
:101CD800F1D8A4F1100222F00F0204F00F04103220
:101CE800032C15441DD9271F3E462A46032E42F8C9
:101CF800043BC7F380070DD927B1043E032E42F8F1
:101D0800043B07D91746083E47F8043B53603A1D81
:101D1800032EF7D8231F23F00302131D04F0030436
:101D2800ED18B4B12B46C9B203F8011B2C19ED43C9
:101D38006219A34202F001050BD01DB103F8011B83
:101D4800A34206D01A4602F8011B5970531CA3423D
:101D5800F8D1F0BC7047054614468DE7024B13B125
:101D6800024800F049B9704700000000551B000800
:101D78002DE9F04F9F4B87B01A68049002F5A470C4
:101D880003920D4605904FF0010A0399DDF814906F
:101D9800D1F84841002C43D06268B2F1010838D428
:101DA80004F1880B1F320BEB820308F0010C002DA5
:101DB80000F08C805BF82260AE4200F087801E1F26
:101DC80008F1FF37B8F1000F23D0BCF1000F0BD09A
:101DD800002D00F0A28053F8043CAB4200F09D8037
:101DE800013F043E7B1C14D0B846E5B13768AF42CA
:101DF80019D008F1FF37A6F10408002D3FD056F896
:101E0800046CAE423BD0A8F1040607F1FF38002F5E
:101E1800EBD140F20002C0F20002002A40F0DA8062
:101E280007B0BDE8F08F6168CBEB0602A0184F1E23
:101E3800474550F8783C00F09280002240F8782C12
:101E4800002BD6D0D4F8881167680AFA08F008423F
:101E58003AD0D4F88C21104240F09780049856F874
:101E6800801C98476368BB428FD1D9F80010A14203
:101E78008BD108F1FF37A6F10408002DBFD16368A4
:101E8800CBEB0800591E2218B94252F8783C69D0A9
:101E9800002642F8786C002BB5D0D4F88801666823
:101EA8000AFA07F2024236D0D4F88C110A4270D0EE
:101EB80058F8800C98476368B3427FF466AFD9F846
:101EC8000000A0429FD060E79847CBE76268CBEB61
:101ED8000300561E2118464551F8782C70D0002072
:101EE80041F8780C002A3FF46AAFD4F88801666894
:101EF8000AFA08F1014237D0D4F88C01014255D1D1
:101F080053F8801C04980293CDF804C09047029BB4
:101F1800DDF804C02FE09847CDE76168CBEB0600F9
:101F28002218481EB84252F8783C4CD0002142F89A
:101F3800781C002B3FF454AFD4F88801D4F80480FF
:101F48000AFA07F2024229D19847636843457FF4A9
:101F58001CAFD9F80000A0423FF442AF15E7C4F81F
:101F680004806DE7676096E70293CDF804C0904758
:101F7800029BDDF804C06268B2427FF406AFD9F86C
:101F88000010A1423FF41BAFFFE656F8800C9847BB
:101F980068E7049858F8801C98478CE7D4F88C11A7
:101FA8000A4212D056F8800C9847CEE753F8800CB6
:101FB8000293CDF804C09047029BDDF804C0DAE72D
:101FC800C4F804808EE76760B3E7049856F8801C6D
:101FD8009847BAE7616849B9236843B12046C9F808
:101FE8000030AFF30080D9F80040D3E62368A1465B
:101FF8001C46CFE610200008014600200246034692
:10200800FFF73EBD43000000300000200000000044
:10201800F8B500BFF8BC08BC9E467047F8B500BFCD
:08202800F8BC08BC9E4670479D
:08203000ACE1FF7F010000009C
:08203800651D0008AD01000860
:04204000890100080A
:10204400000000000010002000400080007A030A15
:102054000000000000000000010203040607080954
:10206400000000000102030401020304060708093A
:10207400000000001C03002084030020EC03002067
:10208400000000000000000000000000000000004C
:10209400000000000000000000000000000000003C
:1020A400000000000C2000080000000000000000F8
:1020B400000000000000000000000000000000001C
:1020C400000000000000000000000000000000000C
:1020D40000000000000000000000000000000000FC
:1020E40000000000000000000000000000000000EC
:1020F40000000000000000000000000000000000DC
:1021040000000000000000000000000000000000CB
:1021140000000000000000000100000000000000BA
:102124000E33CDAB34126DE6ECDE05000B0000007F
:10213400000000000000000000000000000000009B
:10214400000000000000000000000000000000008B
:10215400000000000000000000000000000000007B
:10216400000000000000000000000000000000006B
:0C249400000000000000000030000020EC
:0424A0000000000038
:0400000508001A35A0
:00000001FF
