:020000040800F2
:1000000000000220B126000801270008012700088F
:100010000127000801270008012700080000000050
:1000200000000000000000000000000001270008A0
:100030000127000800000000012700080127000830
:1000400001270008012700080127000801270008F0
:1000500001270008012700080127000801270008E0
:1000600001270008012700080127000801270008D0
:1000700001270008012700080127000801270008C0
:1000800001270008012700080127000801270008B0
:1000900001270008012700080127000801270008A0
:1000A0000127000801270008012700080127000890
:1000B0000127000801270008012700080127000880
:1000C0000127000801270008012700080127000870
:1000D0000127000801270008012700080127000860
:1000E0000127000801270008012700080127000850
:1000F0000127000801270008012700080127000840
:10010000012700080127000801270008012700082F
:10011000012700080127000801270008012700081F
:10012000012700080127000801270008012700080F
:1001300001270008012700080127000801270008FF
:1001400001270008012700080127000801270008EF
:1001500001270008012700080127000801270008DF
:1001600001270008012700080127000801270008CF
:1001700001270008012700080127000801270008BF
:08018000012700080127000817
:1001880010B5054C237833B9044810B10448AFF3CF
:1001980000800121217010BD5804002000000000DB
:1001A800902C000808B5064B1BB106480649AFF36A
:1001B80000800648016811B1054A02B1904708BDA0
:1001C80000000000902C00085C040020540400206B
:1001D80000000000154B002B08BF134B9D46A3F5EC
:1001E800803A00218B460F461348144A121A02F02F
:1001F8005DFB0F4B002B00D098470E4B002B00D017
:1002080098470020002104460D4600200C49002292
:10021800002302F073FA02F0FFFA2046294600F0A4
:1002280039FB02F0C1FA00BF00000800000000001E
:1002380000000000000000005804002074040020A2
:10024800D127000880B500AF4FF46D43CEF200030C
:100258004FF46D42CEF20002D2F8882042F47002C8
:10026800C3F888204FF46053C4F202034FF460527D
:10027800C4F20202126842F001021A604FF460539D
:10028800C4F202034FF000029A604FF46053C4F2C4
:1002980002034FF46052C4F20202126822F0847220
:1002A80022F480321A604FF46053C4F2020343F21E
:1002B8001002C2F200425A604FF46053C4F20203C3
:1002C8004FF46052C4F20202126822F480221A60CB
:1002D8004FF46053C4F202034FF00002DA6000F0FA
:1002E800C1F84FF46D43CEF200034FF000629A60FC
:1002F80080BD00BF80B487B000AF4FF000033B6102
:100308004FF000037B614FF00203FB604FF00003E6
:10031800BB604FF002037B604FF46053C4F20203EA
:100328009B6803F00C033B613B69042B0DD0082B41
:1003380015D0002B69D140F20403C2F200034FF438
:100348001052C0F2F4021A6069E040F20403C2F2EB
:1003580000034FF49052C0F27A021A605FE04FF443
:100368006053C4F202035B6803F480034FEA9353BB
:10037800BB604FF46053C4F202035B6803F03F03B1
:100388007B60BB68002B14D04FF49053C0F27A0303
:100398007A68B3FBF2F24FF46053C4F2020359686F
:1003A80047F6C0730B404FEA931303FB02F37B61DC
:1003B80013E04FF41053C0F2F4037A68B3FBF2F27F
:1003C8004FF46053C4F20203596847F6C0730B40F8
:1003D8004FEA931303FB02F37B614FF46053C4F2BB
:1003E80002035B6803F440334FEA134303F101034C
:1003F8004FEA4303FB607A69FB68B2FBF3F240F211
:100408000403C2F200031A6009E040F20403C2F2D6
:1004180000034FF41052C0F2F4021A6000BF4FF408
:100428006053C4F202039B6803F0F0034FEA13120F
:1004380040F20803C2F200039B5CDBB23B6140F26E
:100448000403C2F200031A683B6922FA03F240F27D
:100458000403C2F200031A6007F11C07BD4680BC02
:10046800704700BF80B483B000AF4FF000037B60DB
:100478004FF000033B604FF46053C4F202034FF4A3
:100488006052C4F20202126842F480321A604FF4D9
:100498006053C4F202031B6803F400333B607B68BB
:1004A80003F101037B603B68002B03D17B68B3F544
:1004B800A06FECD14FF46053C4F202031B6803F43D
:1004C8000033002B03D04FF001033B6002E04FF0F4
:1004D80000033B603B68012B40F082804FF460537F
:1004E800C4F202034FF46052C4F20202126C42F0EA
:1004F80080521A644FF4E043C4F200034FF4E04220
:10050800C4F20002126842F480421A604FF4605349
:10051800C4F202034FF46052C4F2020292689A6075
:100528004FF46053C4F202034FF46052C4F2020263
:10053800926842F400429A604FF46053C4F2020396
:100548004FF46052C4F20202926842F4A0529A60D8
:100558004FF46053C4F2020345F21942C0F24072EC
:100568005A604FF46053C4F202034FF46052C4F26D
:100578000202126842F080721A6000BF4FF46053A2
:10058800C4F202031B6803F00073002BF6D04FF48B
:100598007053C4F2020340F205621A604FF46053CC
:1005A800C4F202034FF46052C4F20202926822F0CD
:1005B80003029A604FF46053C4F202034FF460528E
:1005C800C4F20202926842F002029A6000BF4FF43D
:1005D8006053C4F202039B6803F00C03082BF6D1A6
:1005E80007F10C07BD4680BC704700BF80B483B0DC
:1005F80000AF786000E000BF7B68002B0CBF0022D2
:100608000122D2B203F1FF337B60002AF3D107F154
:100618000C07BD4680BC704780B586B000AF4FF46C
:1006280000104FF0010100F0E7FD4FF002004FF01D
:10063800010100F063FD4FF0C0033B614FF002037E
:100648003B754FF002037B754FF00103BB754FF00C
:100658000003FB7507F110034FF48060C4F2020039
:10066800194601F037F94FF48060C4F202004FF0E8
:1006780006014FF0040201F0BBFA4FF48060C4F2A7
:1006880002004FF007014FF0040201F0B1FA48F2FE
:10069800A063C0F201033B604FF00003BB804BF640
:1006A800FF73FB804FF000033B814FF480637B8135
:1006B8004FF48043BB813B464FF4A840C4F200008E
:1006C800194601F02DFB4FF4A840C4F200004FF08A
:1006D800010101F01DFC07F11807BD4680BD00BFF0
:1006E80080B582B000AF786013460A46FA70BB70D6
:1006F80000BF78684FF4003101F038FF0346002B43
:10070800F7D178684FF0010101F022FC00BF78684A
:100718004FF00101C0F2030101F0CAFE0346002BAD
:10072800F5D0FA78BB78786811461A4601F050FC83
:10073800BB78002B0BD100BF78684FF08201C0F264
:10074800070101F0B5FE0346002BF5D00DE0BB789C
:10075800012B0AD100BF78684FF00201C0F20301F3
:1007680001F0A6FE0346002BF5D007F10807BD46A9
:1007780080BD00BF80B582B000AF78600B46FB70CB
:10078800FB787868194601F087FD00BF78684FF05C
:100798008401C0F2070101F08BFE0346002BF5D05F
:1007A80007F10807BD4680BD80B582B000AF78600C
:1007B8000B46FB7000BF78684FF08001C0F207015C
:1007C80001F076FE0346002BF5D0FB7878681946D1
:1007D80001F062FD07F10807BD4680BD80B584B011
:1007E80000AF786078684FF0010101F00FFC00BF9E
:1007F80078684FF04001C0F2030101F059FE03464A
:10080800002BF5D0786801F057FD0346FB73FB7B9E
:10081800184607F11007BD4680BD00BF80B584B0FB
:1008280000AF786078684FF0000101F0EFFB00BF7F
:1008380078684FF04001C0F2030101F039FE034629
:10084800002BF5D0786801F037FD0346FB73FB7B7E
:10085800184607F11007BD4680BD00BF80B582B0BD
:1008680000AF786078684FF0010101F091FB07F163
:100878000807BD4680BD00BF80B582B000AF786074
:1008880078684FF0010101F083FB07F10807BD46C6
:1008980080BD00BF80B500AFFFF7BEFE4FF4A84093
:1008A800C4F200004FF0D0014FF00002FFF718FF2C
:1008B8004FF4A840C4F200004FF06B01FFF75AFF55
:1008C8004FF4A840C4F200004FF00101FFF76CFF9D
:1008D8004FF4A840C4F20000FFF7CEFF4FF4A84041
:1008E800C4F200004FF0D0014FF00002FFF7F8FE0D
:1008F8004FF4A840C4F200004FF01B01FFF754FF6B
:100908004FF4A840C4F200004FF00001FFF74CFF7D
:100918004FF4A840C4F20000FFF7AEFF4FF4A84020
:10092800C4F200004FF0D0014FF00002FFF7D8FEEC
:100938004FF4A840C4F200004FF01C01FFF734FF49
:100948004FF4A840C4F200004FF00001FFF72CFF5D
:100958004FF4A840C4F20000FFF78EFF4FF4A84000
:10096800C4F200004FF0D0014FF00002FFF7B8FECC
:100978004FF4A840C4F200004FF07501FFF714FFD0
:100988004FF4A840C4F20000FFF776FF4FF4A840E8
:10099800C4F200004FF0D0014FF00102FFF7A0FEB3
:1009A8004FF4A840C4F20000FFF738FF4FF4A84006
:1009B800C4F20000FFF760FFFEE700BFC02C00088C
:1009C8000000002054040020580400207404002073
:1009D80080B400AF4FF46053C4F202034FF4605286
:1009E800C4F20202126842F001021A604FF4605326
:1009F800C4F202034FF000029A604FF46053C4F24D
:100A080002034FF46052C4F20202126822F08472A8
:100A180022F480321A604FF46053C4F2020343F2A6
:100A28001002C2F200425A604FF46053C4F202034B
:100A38004FF46052C4F20202126822F480221A6053
:100A48004FF46053C4F202034FF00002DA60BD466F
:100A580080BC704780B483B000AF0346FB7143F697
:100A68000203C4F202034FF000021A7043F60203B5
:100A7800C4F20203FA791A7007F10C07BD4680BC6C
:100A8800704700BF80B582B000AF4FF000033B60F5
:100A98004FF00003FB714FF00003BB714FF03100C2
:100AA80000F0D2FD0346BB713B6803F101033B60D4
:100AB8003B68B3F5A06F02D0BB79002BEED04FF0A6
:100AC800310000F0C1FD0346002B03D04FF00103B5
:100AD800FB7102E04FF00003FB71FB79184607F148
:100AE8000807BD4680BD00BF80B485B000AF03468F
:100AF800FB714FF00003FB604FF46053C4F2020334
:100B08001B68FB60FB6823F0F803FB60FB794FEA86
:100B1800C303FA681343FB604FF46053C4F2020343
:100B2800FA681A6007F11407BD4680BC704700BF19
:100B380080B483B000AF0346FB714FF00003C4F2EA
:100B48004723FA791A6007F10C07BD4680BC704745
:100B580080B483B000AF0346FB7143F67003C4F260
:100B680002034FF000021A7043F67003C4F2020346
:100B78004FF000021A70FB79012B02D0042B08D029
:100B88000FE043F67003C4F202034FF001021A703B
:100B980008E043F67003C4F202034FF005021A702E
:100BA80000E000BF07F10C07BD4680BC704700BFDE
:100BB80080B483B000AF0346FB714FF46863C4F29E
:100BC8004723FA791A6007F10C07BD4680BC7047C5
:100BD80080B485B000AFF860B9607A603B604FF4CC
:100BE8006053C4F202037A684FEA8211BA6811436B
:100BF8003A684FEA520202F1FF324FEA02421143C9
:100C0800FA681143BA694FEA02620A435A6007F167
:100C18001407BD4680BC704780B483B000AF03465C
:100C2800FB714FF06003C4F24723FA791A6007F1A9
:100C38000C07BD4680BC704780B483B000AF7860B5
:100C480039604FF46053C4F202037A684FEA8211A4
:100C58003A684FEA02720A43C3F8842007F10C0786
:100C6800BD4680BC704700BF80B483B000AF034668
:100C7800FB714FF06803C4F24723FA791A6007F151
:100C88000C07BD4680BC704780B483B000AF0346F4
:100C9800FB714FF04C03C4F24723FA791A6007F14D
:100CA8000C07BD4680BC704780B485B000AF786043
:100CB80039604FF00003FB604FF46053C4F2020345
:100CC8009B68FB60FB6823F0EC63FB607A683B6819
:100CD8001343FA681343FB604FF46053C4F20203F2
:100CE800FA689A6007F11407BD4680BC704700BFD8
:100CF80080B485B000AF786039604FF00003FB60C6
:100D08004FF46053C4F202039B68FB60FB6823F056
:100D18007843FB607A683B681343FA681343FB60C7
:100D28004FF46053C4F20203FA689A6007F114079B
:100D3800BD4680BC704700BF80B485B000AF786006
:100D48004FF00003FB604FF46053C4F202039B684A
:100D5800FB60FB6823F00303FB60FA687B681343BE
:100D6800FB604FF46053C4F20203FA689A6007F11B
:100D78001407BD4680BC704780B400AF4FF4605381
:100D8800C4F202039B68DBB203F00C03DBB2184623
:100D9800BD4680BC704700BF80B485B000AF7860A6
:100DA8004FF00003FB604FF46053C4F202039B68EA
:100DB800FB60FB6823F0F003FB60FA687B68134371
:100DC800FB604FF46053C4F20203FA689A6007F1BB
:100DD8001407BD4680BC704780B485B000AF78600A
:100DE8004FF00003FB604FF46053C4F202039B68AA
:100DF800FB60FB6823F4E053FB60FA687B681343ED
:100E0800FB604FF46053C4F20203FA689A6007F17A
:100E18001407BD4680BC704780B485B000AF7860C9
:100E28004FF00003FB604FF46053C4F202039B6869
:100E3800FB60FB6823F46043FB607B684FEAC303F5
:100E4800FA681343FB604FF46053C4F20203FA6874
:100E58009A6007F11407BD4680BC704780B489B01A
:100E680000AF78604FF00003BB614FF000037B6177
:100E78004FF00003FB614FF002033B614FF00003AA
:100E8800FB604FF00203BB604FF46053C4F20203EF
:100E98009B6803F00C03BB61BB69042B0AD0082BC9
:100EA8000FD0002B60D17A684FF41053C0F2F403CE
:100EB800136060E07A684FF49053C0F27A031360CD
:100EC80059E04FF46053C4F202035B6803F48003F3
:100ED8004FEA9353FB604FF46053C4F202035B681C
:100EE80003F03F03BB60FB68002B14D04FF4905312
:100EF800C0F27A03BA68B3FBF2F24FF46053C4F25B
:100F08000203596847F6C0730B404FEA931303FB7B
:100F180002F3FB6113E04FF41053C0F2F403BA6814
:100F2800B3FBF2F24FF46053C4F20203596847F678
:100F3800C0730B404FEA931303FB02F3FB614FF4BA
:100F48006053C4F202035B6803F440334FEA13436F
:100F580003F101034FEA43033B61FA693B69B2FBC2
:100F6800F3F27B681A6006E07A684FF41053C0F217
:100F7800F403136000BF4FF46053C4F202039B688C
:100F880003F0F003BB61BB694FEA1313BB6140F286
:100F98001803C2F20003BA699B181B78DBB27B61A5
:100FA8007B681A687B6922FA03F27B685A604FF4FF
:100FB8006053C4F202039B6803F4E053BB61BB694E
:100FC8004FEA9323BB6140F21803C2F20003BA69E7
:100FD8009B181B78DBB27B617B685A687B6922FAB5
:100FE80003F27B689A604FF46053C4F202039B6873
:100FF80003F46043BB61BB694FEA5333BB6140F202
:101008001803C2F20003BA699B181B78DBB27B6134
:101018007B685A687B6922FA03F27B68DA6007F119
:101028002407BD4680BC704780B485B000AF7860A7
:101038004FF00003FB607B6803F44073B3F5407F17
:1010480017D14FF46053C4F202039B68FB60FB683E
:1010580023F4F813FB607B6823F0704323F4407398
:10106800FA681343FB604FF46053C4F20203FA6852
:101078009A604FF46053C4F202034FF46052C4F212
:101088000202116F7A684FEA02524FEA12520A437B
:101098001A6707F11407BD4680BC704780B483B057
:1010A80000AF0346FB7140F63C63C4F24723FA796C
:1010B8001A6007F10C07BD4680BC704780B483B046
:1010C80000AF0346FB714FF46463C4F24723FA7917
:1010D8001A6007F10C07BD4680BC704780B483B026
:1010E80000AF78604FF4AE73C4F247237A681A6091
:1010F80007F10C07BD4680BC704700BF80B483B0C1
:1011080000AF78600B46FB70FB78002B0CD04FF4D7
:101118006053C4F202034FF46052C4F20202116B2E
:101128007A680A431A630DE04FF46053C4F202036D
:101138004FF46052C4F20202116B7A686FEA02023D
:101148000A401A6307F10C07BD4680BC704700BF10
:1011580080B483B000AF78600B46FB70FB78002B3F
:101168000CD04FF46053C4F202034FF46052C4F23F
:101178000202516B7A680A435A630DE04FF46053D8
:10118800C4F202034FF46052C4F20202516B7A684F
:101198006FEA02020A405A6307F10C07BD4680BC99
:1011A800704700BF80B483B000AF78600B46FB7017
:1011B800FB78002B0CD04FF46053C4F202034FF4B9
:1011C8006052C4F20202916B7A680A439A630DE096
:1011D8004FF46053C4F202034FF46052C4F20202A7
:1011E800916B7A686FEA02020A409A6307F10C076A
:1011F800BD4680BC704700BF80B483B000AF786044
:101208000B46FB70FB78002B0CD04FF46053C4F2F4
:1012180002034FF46052C4F20202116C7A680A4366
:101228001A640DE04FF46053C4F202034FF46052A5
:10123800C4F20202116C7A686FEA02020A401A6468
:1012480007F10C07BD4680BC704700BF80B483B06F
:1012580000AF78600B46FB70FB78002B0CD04FF486
:101268006053C4F202034FF46052C4F20202516C9C
:101278007A680A435A640DE04FF46053C4F20203DB
:101288004FF46052C4F20202516C7A686FEA0202AB
:101298000A405A6407F10C07BD4680BC704700BF7E
:1012A80080B483B000AF78600B46FB70FB78002BEE
:1012B8000CD04FF46053C4F202034FF46052C4F2EE
:1012C800020211697A680A431A610DE04FF460530B
:1012D800C4F202034FF46052C4F2020211697A6840
:1012E8006FEA02020A401A6107F10C07BD4680BC8A
:1012F800704700BF80B483B000AF78600B46FB70C6
:10130800FB78002B0CD04FF46053C4F202034FF467
:101318006052C4F2020251697A680A435A610DE0C8
:101328004FF46053C4F202034FF46052C4F2020255
:1013380051697A686FEA02020A405A6107F10C079C
:10134800BD4680BC704700BF80B483B000AF7860F2
:101358000B46FB70FB78002B0CD04FF46053C4F2A3
:1013680002034FF46052C4F2020291697A680A4398
:101378009A610DE04FF46053C4F202034FF46052D7
:10138800C4F2020291697A686FEA02020A409A611D
:1013980007F10C07BD4680BC704700BF80B483B01E
:1013A80000AF78600B46FB70FB78002B0CD04FF435
:1013B8006053C4F202034FF46052C4F20202116A8D
:1013C8007A680A431A620DE04FF46053C4F20203CC
:1013D8004FF46052C4F20202116A7A686FEA02029C
:1013E8000A401A6207F10C07BD4680BC704700BF6F
:1013F80080B483B000AF78600B46FB70FB78002B9D
:101408000CD04FF46053C4F202034FF46052C4F29C
:101418000202516A7A680A435A620DE04FF4605337
:10142800C4F202034FF46052C4F20202516A7A68AD
:101438006FEA02020A405A6207F10C07BD4680BCF7
:10144800704700BF80B483B000AF78600B46FB7074
:10145800FB78002B0CD04FF46053C4F202034FF416
:101468006052C4F20202116D7A680A431A650DE0EF
:101478004FF46053C4F202034FF46052C4F2020204
:10148800116D7A686FEA02020A401A6507F10C07C3
:10149800BD4680BC704700BF80B483B000AF7860A1
:1014A8000B46FB70FB78002B0CD04FF46053C4F252
:1014B80002034FF46052C4F20202516D7A680A4383
:1014C8005A650DE04FF46053C4F202034FF46052C2
:1014D800C4F20202516D7A686FEA02020A405A6544
:1014E80007F10C07BD4680BC704700BF80B483B0CD
:1014F80000AF78600B46FB70FB78002B0CD04FF4E4
:101508006053C4F202034FF46052C4F20202916DB8
:101518007A680A439A650DE04FF46053C4F20203F7
:101528004FF46052C4F20202916D7A686FEA0202C7
:101538000A409A6507F10C07BD4680BC704700BF9A
:1015480080B483B000AF78600B46FB70FB78002B4B
:101558000CD04FF46053C4F202034FF46052C4F24B
:101568000202116E7A680A431A660DE04FF460535E
:10157800C4F202034FF46052C4F20202116E7A6898
:101588006FEA02020A401A6607F10C07BD4680BCE2
:10159800704700BF80B483B000AF78600B46FB7023
:1015A800FB78002B0CD04FF46053C4F202034FF4C5
:1015B8006052C4F20202516E7A680A435A660DE01C
:1015C8004FF46053C4F202034FF46052C4F20202B3
:1015D800516E7A686FEA02020A405A6607F10C07F0
:1015E800BD4680BC704700BF80B483B000AF0246E0
:1015F8000B46FA71BB71BB79002B0ED043F60D0375
:10160800C4F2020343F60D02C4F202021278D1B208
:10161800FA790A43D2B21A7010E043F60D03C4F205
:10162800020343F60D02C4F202021278D1B2FA792B
:101638006FEA0202D2B20A40D2B21A7007F10C075E
:10164800BD4680BC704700BF80B487B000AF03467A
:10165800FB714FF00003FB604FF000037B614FF01C
:101668000003FB74FB794FEA5313DBB2FB60FB68A2
:10167800012B06D14FF46053C4F202031B687B614F
:101688000FE0FB68022B06D14FF46053C4F202034B
:101698001B6F7B6105E04FF46053C4F202035B6F7C
:1016A8007B61FB7903F01F03FB60FB687A6922FA10
:1016B80003F303F00103002B03D04FF00103FB7485
:1016C80002E04FF00003FB74FB7C184607F11C078F
:1016D800BD4680BC704700BF80B400AF4FF4605374
:1016E800C4F202034FF46052C4F20202526F42F095
:1016F80080725A67BD4680BC704700BF80B485B011
:1017080000AF0346FB714FF00003FB734FF46053C7
:10171800C4F20203DA68FB791340002B03D04FF0C0
:101728000103FB7302E04FF00003FB73FB7B1846D9
:1017380007F11407BD4680BC704700BF80B483B072
:1017480000AF0346FB7143F60E03C4F20203FA79B5
:101758001A7007F10C07BD4680BC704780B582B08F
:1017680000AF78607A684FF00003C4F202039A422F
:101778000CD14FF001004FF00101FFF791FD4FF040
:1017880001004FF00001FFF78BFD9EE07A684FF4EF
:101798008063C4F202039A420CD14FF002004FF06A
:1017A8000101FFF77DFD4FF002004FF00001FFF748
:1017B80077FD8AE07A684FF40063C4F202039A4224
:1017C8000CD14FF004004FF00101FFF769FD4FF015
:1017D80004004FF00001FFF763FD76E07A684FF4EC
:1017E8004063C4F202039A420CD14FF008004FF054
:1017F8000101FFF755FD4FF008004FF00001FFF71A
:101808004FFD62E07A684FF48053C4F202039A42B3
:101818000CD14FF010004FF00101FFF741FD4FF0E0
:1018280010004FF00001FFF73BFD4EE07A684FF4DF
:10183800A053C4F202039A420CD14FF020004FF09B
:101848000101FFF72DFD4FF020004FF00001FFF7D9
:1018580027FD3AE07A684FF4C053C4F202039A4273
:101868000CD14FF040004FF00101FFF719FD4FF088
:1018780040004FF00001FFF713FD26E07A684FF4AF
:10188800E053C4F202039A420CD14FF080004FF0AB
:101898000101FFF705FD4FF080004FF00001FFF751
:1018A800FFFC12E07A684FF40053C4F202039A4234
:1018B8000BD14FF480704FF00101FFF7F1FC4FF4AA
:1018C80080704FF00001FFF7EBFC07F10807BD46F9
:1018D80080BD00BF80B487B000AF786039604FF03A
:1018E80000037B614FF000033B614FF00003FB6096
:1018F8004FF000037B6186E07B694FF0010202FA3A
:1019080003F33B613B681A683B691340FB60FA6864
:101918003B699A4273D17B681A687B694FEA430333
:101928004FF0030101FA03F36FEA03031A407B68DF
:101938001A607B681A683B681B7919467B694FEA0D
:10194800430301FA03F31A437B681A603B681B7967
:10195800012B03D03B681B79022B34D17B689A6832
:101968007B694FEA43034FF0030101FA03F36FEA7F
:1019780003031A407B689A607B689A683B685B79C6
:1019880019467B694FEA430301FA03F31A437B685C
:101998009A607B685A687B699BB24FF0010101FA33
:1019A80003F36FEA03031A407B685A607B685A683E
:1019B8003B689B7919467B699BB201FA03F39BB29A
:1019C8001A437B685A607B68DA687B699BB24FEA86
:1019D80043034FF0030101FA03F36FEA03031A40CC
:1019E8007B68DA607B68DA683B68DB7919467B6973
:1019F8004FEA430301FA03F31A437B68DA607B6911
:101A080003F101037B617B690F2B7FF675AF07F14B
:101A18001C07BD4680BC704780B483B000AF7860B7
:101A28007B684FF6FF721A607B684FF000021A71EC
:101A38007B684FF000025A717B684FF000029A7180
:101A48007B684FF00002DA7107F10C07BD4680BCD5
:101A5800704700BF80B485B000AF78600B467B80CC
:101A68004FF48033FB607A88FB681343FB60FA68A5
:101A78007B68DA617A887B68DA61FA687B68DA61A0
:101A88007B68DB69FB607B68DB69FB6007F1140737
:101A9800BD4680BC704700BF80B485B000AF786099
:101AA8000B467B804FF00003FB737B681A697B88C9
:101AB8001340002B03D04FF00103FB7302E04FF0FB
:101AC8000003FB73FB7B184607F11407BD4680BC77
:101AD800704700BF80B483B000AF78607B681B6933
:101AE8009BB2184607F10C07BD4680BC704700BF83
:101AF80080B485B000AF78600B467B804FF0000360
:101B0800FB737B685A697B881340002B03D04FF026
:101B18000103FB7302E04FF00003FB73FB7B1846E5
:101B280007F11407BD4680BC704700BF80B483B07E
:101B380000AF78607B685B699BB2184607F10C07B9
:101B4800BD4680BC704700BF80B483B000AF7860EA
:101B58000B467B807B687A881A8307F10C07BD46A1
:101B680080BC704780B483B000AF78600B467B8040
:101B78007B687A885A8307F10C07BD4680BC70479A
:101B880080B483B000AF786013460A467A807B70D1
:101B98007B78002B03D07B687A881A8302E07B6805
:101BA8007A885A8307F10C07BD4680BC704700BF8E
:101BB80080B483B000AF78600B467B807A887B68FE
:101BC8005A6107F10C07BD4680BC704780B483B0EA
:101BD80000AF78600B467B807B685A697B885A40E7
:101BE8007B685A6107F10C07BD4680BC704700BF8F
:101BF80080B485B000AF786013460A467A807B705F
:101C08004FF00003FB604FF00003BB607A787B88DD
:101C180003F007034FEA830302FA03F3FB607B88B0
:101C28004FEAD3039BB21A467B884FEAD3039BB291
:101C380019467B6801F1080153F821107B8803F0ED
:101C480007034FEA83034FF00F0000FA03F36FEA2C
:101C5800030319407B6802F1080243F822107B88CD
:101C68004FEAD3039BB21A467B6802F1080253F885
:101C78002220FB681343BB607B884FEAD3039BB2E7
:101C88001A467B6802F10802B96843F8221007F186
:101C98001407BD4680BC704780B582B000AF78603D
:101CA8007A684FF4A843C4F200039A420CD14FF467
:101CB80000104FF00101FFF771FB4FF400104FF0D7
:101CC8000001FFF76BFB26E07A684FF4B043C4F2DB
:101CD80000039A420CD14FF480004FF00101FFF746
:101CE8005DFB4FF480004FF00001FFF757FB12E057
:101CF8007A684FF4B843C4F200039A420BD14FF408
:101D080000004FF00101FFF749FB4FF400004FF0CE
:101D18000001FFF743FB07F10807BD4680BD00BF80
:101D280080B58AB000AF786039604FF00003FB845B
:101D38004FF000037B844FF00403BB844FF49053AF
:101D4800C0F27A03FB617B689B88FB84FB8C23F0E1
:101D58003F03FB8407F10C031846FFF77FF87B6904
:101D6800FB61FA694DF68363C4F21B33A3FB0213CC
:101D78004FEA93437B84FA8C7B8C1343FB847B6808
:101D8800FA8C9A807B681B889BB223F001039AB275
:101D98007B681A804FF00003FB843B681A6848F29E
:101DA800A063C0F201039A4218D83B681B684FEA47
:101DB8004303FA69B2FBF3F3BB84BB8C032B02D851
:101DC8004FF00403BB84FA8CBB8C1343FB847B8CDD
:101DD80003F101039AB27B681A844BE03B68DA8806
:101DE8004BF6FF739A420AD13B681A6813464FEACA
:101DF80043039B18FA69B2FBF3F3BB8410E03B681A
:101E08001A6813464FEA83039B184FEA83029B180C
:101E1800FA69B2FBF3F3BB84BB8C43F48043BB8405
:101E2800BB8C4FEA03534FEA1353002B03D1BB8CEF
:101E380043F00103BB84BA8CFB8C13439BB26FEA5B
:101E480043436FEA5343FB847B8C4FF4967202FB47
:101E580003F244F6D353C1F2620383FB02134FEA41
:101E6800A3114FEAE273CB1A9BB203F101039AB2B2
:101E78007B681A847B68FA8C9A837B681B889BB280
:101E880043F001039AB27B681A807B681B88FB8445
:101E9800FB8C23F4816323F00203FB843B689A885C
:101EA8003B685B8913439AB2FB8C1343FB847B68C2
:101EB800FA8C1A803B689A893B681B8913439AB24B
:101EC8007B681A8107F12807BD4680BD80B483B0BE
:101ED80000AF78607B6841F288321A607B684FF007
:101EE80000029A807B684BF6FF72DA807B684FF0BD
:101EF80000021A817B684FF000025A817B684FF418
:101F080080429A8107F10C07BD4680BC704700BF2C
:101F180080B483B000AF78600B46FB70FB78002B71
:101F280008D07B681B889BB243F001039AB27B6898
:101F38001A8007E07B681B889BB223F001039AB2E2
:101F48007B681A8007F10C07BD4680BC704700BF4C
:101F580080B483B000AF78600B46FB70FB78002B31
:101F680008D07B681B889BB243F480739AB27B6865
:101F78001A8007E07B681B889BB223F480739AB2AF
:101F88007B681A8007F10C07BD4680BC704700BF0C
:101F980080B483B000AF78600B46FB70FB78002BF1
:101FA80008D07B681B889BB243F400739AB27B68A5
:101FB8001A8007E07B681B889BB223F400739AB2EF
:101FC8007B681A8007F10C07BD4680BC704700BFCC
:101FD80080B483B000AF786013460A46FA70BB70CD
:101FE800BB78002B04D0FB7843F00103FB7003E0BF
:101FF800FB7823F00103FB70FB789AB27B681A82A6
:1020080007F10C07BD4680BC704700BF80B483B0A1
:1020180000AF78600B46FB70FB78002B08D07B681C
:102028001B889BB243F480639AB27B681A8007E0EE
:102038007B681B889BB223F480639AB27B681A8002
:1020480007F10C07BD4680BC704700BF80B485B05F
:1020580000AF78600B46FB704FF00003FB817B6894
:102068009B89FB81FB8923F0FE03FB81FB789BB2F4
:1020780003F0FE039AB2FB8913439BB2FB817B6892
:10208800FA899A8107F11407BD4680BC704700BFE2
:1020980080B483B000AF78600B46FB70FB78002BF0
:1020A80008D07B689B899BB243F001039AB27B6896
:1020B8009A8107E07B689B899BB223F001039AB25F
:1020C8007B689A8107F10C07BD4680BC704700BF4A
:1020D80080B483B000AF78600B46FB70FB78002BB0
:1020E80008D07B681B889BB243F040039AB27B6898
:1020F8001A8007E07B681B889BB223F040039AB2E2
:102108007B681A8007F10C07BD4680BC704700BF8A
:1021180080B483B000AF78600B46FB70FB78002B6F
:102128000AD07B681B889BB26FEA43436FEA53432C
:102138009AB27B681A8009E07B681B889BB24FEAD9
:1021480043434FEA53439AB27B681A8007F10C075E
:10215800BD4680BC704700BF80B483B000AF7860D4
:102168000B46FB70FB78002B08D17B681B889BB261
:1021780043F080039AB27B681A8007E07B681B886B
:102188009BB223F080039AB27B681A8007F10C0790
:10219800BD4680BC704700BF80B483B000AF786094
:1021A8000B467B807B88B3F5804F08D07B689B8B80
:1021B8009BB223F480439AB27B689A8307E07B68DA
:1021C8009B8B9BB243F480439AB27B689A8307F156
:1021D8000C07BD4680BC704780B483B000AF786000
:1021E8000B467B807B88B3F5006F08D17B681B8822
:1021F8009BB243F400639AB27B681A8007E07B685D
:102208001B889BB223F400639AB27B681A8007F19B
:102218000C07BD4680BC704780B483B000AF7860BF
:102228000B467B807B88B3F5005F08D17B681B88F1
:102238009BB243F400539AB27B681A8007E07B682C
:102248001B889BB223F400539AB27B681A8007F16B
:102258000C07BD4680BC704780B483B000AF78607F
:102268000B46FB70FB78002B08D07B681B889BB261
:1022780043F010039AB27B681A8007E07B681B88DA
:102288009BB223F010039AB27B681A8007F10C07FF
:10229800BD4680BC704700BF80B483B000AF786093
:1022A8000B46FB70FB789AB27B681A8207F10C0721
:1022B800BD4680BC704700BF80B483B000AF786073
:1022C8007B681B8A9BB2DBB2184607F10C07BD4638
:1022D80080BC704780B483B000AF78600B46FB7059
:1022E800FB78002B08D07B681B889BB243F4805393
:1022F8009AB27B681A8007E07B681B889BB223F43C
:1023080080539AB27B681A8007F10C07BD4680BCDF
:10231800704700BF80B483B000AF78600B467B8005
:102328007B88B3F5006F08D17B681B889BB243F4A8
:1023380000639AB27B681A8007E07B681B889BB2AF
:1023480023F400639AB27B681A8007F10C07BD4634
:1023580080BC704780B483B000AF78600B46FB70D8
:10236800FB78002B08D07B681B889BB243F02003C6
:102378009AB27B681A8007E07B681B889BB223F0BF
:1023880020039AB27B681A8007F10C07BD4680BC0F
:10239800704700BF80B483B000AF78607B681B8B48
:1023A8009BB24FEA13239BB2DBB2184607F10C0726
:1023B800BD4680BC704700BF80B483B000AF786072
:1023C8000B46FB70FB78002B08D07B689B889BB280
:1023D80043F400639AB27B689A8007E07B689B8825
:1023E8009BB223F400639AB27B689A8007F10C07CA
:1023F800BD4680BC704700BF80B483B000AF786032
:102408000B46FB70FB78002B08D07B689B889BB23F
:1024180043F480539AB27B689A8007E07B689B8874
:102428009BB223F480539AB27B689A8007F10C0719
:10243800BD4680BC704700BF80B485B000AF7860EF
:102448000B46FB704FF00003FB607B68FB60FA787B
:10245800FB68D318FB60FB681B889BB2184607F122
:102468001407BD4680BC704780B483B000AF786065
:1024780013460A467A807B707B78002B08D07B68ED
:102488009B889AB27B8813439AB27B689A800AE049
:102498007B689B889AB27B886FEA03039BB21340E0
:1024A8009AB27B689A8007F10C07BD4680BC7047DA
:1024B80080B487B000AF786039604FF000033B61AB
:1024C8004FF00003FB604FF00003BB604FF00003C8
:1024D800FB757B689B8A9BB2FB607B681B8B9BB2FE
:1024E800BB60BB684FEA0343BB60FA68BB68134331
:1024F80023F07F433B613A693B681A403B689A4244
:1025080003D14FF00103FB7502E04FF00003FB75A8
:10251800FB7D184607F11C07BD4680BC704700BF0D
:1025280080B487B000AF78604FF000037B614FF054
:1025380000033B614FF00003FB607B689B8A9BB202
:102548003B617B681B8B9BB2FB60FB684FEA0343D4
:10255800FB603A69FB68134323F07F437B617B6927
:10256800184607F11C07BD4680BC704780B487B089
:1025780000AF786039604FF00003FB754FF000033F
:102588003B614FF00003FB607B68FB603B684FEAF0
:1025980013733B613B6823F07F433B603B69002B2F
:1025A80004D0FB6803F11403FB6007E03B684FEAC3
:1025B80013433B60FB6803F11803FB60FB681A6870
:1025C8003B681340002B03D04FF00103FB7502E07A
:1025D8004FF00003FB75FB7D184607F11C07BD464D
:1025E80080BC704780B485B000AF786039604FF028
:1025F8000003FB603B6823F07F43FB60FB689BB2F2
:102608006FEA03039AB27B689A8207F11407BD4602
:1026180080BC704780B485B000AF786039604FF0F7
:102628000003FB734FF00003BB603B6803F0E063FB
:102638004FEA13427B689B889BB21340BB603B68A0
:1026480023F07F433B607B689B8A9BB21A463B68BA
:102658001340002B06D0BB68002B03D04FF00103BA
:10266800FB7302E04FF00003FB73FB7B184607F196
:102678001407BD4680BC704780B485B000AF786051
:1026880039604FF00003FB603B6823F07F43FB6039
:10269800FB689BB26FEA03039AB27B689A8207F1E0
:1026A8001407BD4680BC7047002100F004B80D4BEC
:1026B8005B58435004310C480C4B42189A42FFF4C3
:1026C800F6AF0B4A00F003B8002342F8043B094B6D
:1026D8009A42FFF4F9AFFDF7B5FD00F09DF8FEF75B
:1026E800D9F87047C02C00080000002054040020CE
:1026F8005804002074040020FFF7FEBF2DE9F041C4
:10270800274C2568D5F8484184B00746002C41D0AD
:1027180066681F2E1CDD234810B94FF0FF301FE0FC
:102728004FF4C870039102920193AFF300800399AC
:10273800029A019B04460028EFD0D5F84861002092
:1027480060602660C5F84841C4F88801C4F88C0167
:10275800656847B9A81C013544F820106560002059
:1027680004B0BDE8F081D4F88861012004EB850845
:1027780000FA05F00643022FC8F88820C4F88861DB
:10278800C8F80831E6D1D4F88C3143EA0002C4F81D
:102798008C21DFE705F5A674C5F84841B8E700BF06
:1027A8008C2C00080000000008B50021044600F049
:1027B8001DF9044B1868C16B01B18847204600F029
:1027C80072EA00BF8C2C000870B5114B114C181B15
:1027D800811018D004EB81044E1E354654F8042DA0
:1027E80006F00106904775B126B154F8043D9847A4
:1027F800013D08D054F8040D8047013D54F8041DEC
:102808008847013DF6D1BDE8704000F045BA00BFE9
:10281800C02C0008BC2C0008F8B5204F204C381BF1
:10282800871017D07A1E2368012502F00106984701
:10283800AF420FD02EB154F8041F02258847AF428B
:1028480008D0606880470235A268261D9047083482
:10285800AF42F6D1134F144C00F018FA3B1B9F10EF
:1028680018D07D1E216805F0010601258847AF4272
:1028780011D02EB154F8040F02258047AF420BD077
:10288800626890470235A368261D98470834AF420E
:10289800F6D1F8BDF8BDF8BDF8BD00BFB42C0008EE
:1028A800B42C0008BC2C0008B42C0008F0B4840731
:1028B800034600F08E80541E002A00F08880E50749
:1028C800CEB211D41A46671E02F8016B134615469C
:1028D80092070FD0002C7AD003F8016B9A073C4678
:1028E8001D4607D0013CEDE7034603F8016B9A0744
:1028F8001D46F7D1032C52D9CEB246EA06270F2C33
:1029080047EA07432DD9A4F1100217460F2FC2F347
:1029180000162B606B60AB60EB6005F1100216D9F6
:102928003EB1103F136053609360D36010320F2F95
:102938000DD9203F02F11006136053609360D360F5
:10294800136153619361D36120320F2FF1D8A4F141
:10295800100222F00F0204F00F041032032C154469
:102968001DD9271F3E462A46032E42F8043BC7F3CB
:1029780080070DD927B1043E032E42F8043B07D93E
:102988001746083E47F8043B53603A1D032EF7D814
:10299800231F23F00302131D04F00304ED18B4B140
:1029A8002B46C9B203F8011B2C19ED436219A34247
:1029B80002F001050BD01DB103F8011BA34206D09C
:1029C8001A4602F8011B5970531CA342F8D1F0BCF7
:1029D8007047054614468DE7024B13B1024800F0D4
:1029E80049B9704700000000D12700082DE9F04FD1
:1029F8009F4B87B01A68049002F5A47003920D46A5
:102A080005904FF0010A0399DDF81490D1F8484178
:102A1800002C43D06268B2F1010838D404F1880B65
:102A28001F320BEB820308F0010C002D00F08C80A4
:102A38005BF82260AE4200F087801E1F08F1FF3766
:102A4800B8F1000F23D0BCF1000F0BD0002D00F01F
:102A5800A28053F8043CAB4200F09D80013F043E45
:102A68007B1C14D0B846E5B13768AF4219D008F1DD
:102A7800FF37A6F10408002D3FD056F8046CAE428B
:102A88003BD0A8F1040607F1FF38002FEBD140F244
:102A98000002C0F20002002A40F0DA8007B0BDE868
:102AA800F08F6168CBEB0602A0184F1E474550F81F
:102AB800783C00F09280002240F8782C002BD6D089
:102AC800D4F8881167680AFA08F008423AD0D4F8AE
:102AD8008C21104240F09780049856F8801C984743
:102AE8006368BB428FD1D9F80010A1428BD108F19D
:102AF800FF37A6F10408002DBFD16368CBEB0800AF
:102B0800591E2218B94252F8783C69D0002642F87A
:102B1800786C002BB5D0D4F8880166680AFA07F2F9
:102B2800024236D0D4F88C110A4270D058F8800C82
:102B380098476368B3427FF466AFD9F80000A042B3
:102B48009FD060E79847CBE76268CBEB0300561E3F
:102B58002118464551F8782C70D0002041F8780C9F
:102B6800002A3FF46AAFD4F8880166680AFA08F1C7
:102B7800014237D0D4F88C01014255D153F8801C5A
:102B880004980293CDF804C09047029BDDF804C076
:102B98002FE09847CDE76168CBEB06002218481E66
:102BA800B84252F8783C4CD0002142F8781C002BEF
:102BB8003FF454AFD4F88801D4F804800AFA07F235
:102BC800024229D19847636843457FF41CAFD9F87E
:102BD8000000A0423FF442AF15E7C4F804806DE757
:102BE800676096E70293CDF804C09047029BDDF832
:102BF80004C06268B2427FF406AFD9F80010A1425F
:102C08003FF41BAFFFE656F8800C984768E7049836
:102C180058F8801C98478CE7D4F88C110A4212D0D7
:102C280056F8800C9847CEE753F8800C0293CDF8FD
:102C380004C09047029BDDF804C0DAE7C4F80480BA
:102C48008EE76760B3E7049856F8801C9847BAE7A0
:102C5800616849B9236843B12046C9F80030AFF329
:102C68000080D9F80040D3E62368A1461C46CFE689
:102C78008C2C00080146002002460346FFF73EBDA3
:102C8800430000002800002000000000F8B500BF45
:102C9800F8BC08BC9E467047F8B500BFF8BC08BC35
:042CA8009E4670478D
:082CAC0030D5FF7F010000009C
:082CB400E1290008AD01000850
:042CBC008901000882
:102CC00000000000007A030A00000000000000007D
:102CD00001020304060708090000000001020304C2
:102CE0000102030406070809000000001403002085
:102CF0007C030020E403002000000000000000002E
:102D000000000000000000000000000000000000C3
:102D1000000000000000000000000000882C0008F7
:102D200000000000000000000000000000000000A3
:102D30000000000000000000000000000000000093
:102D40000000000000000000000000000000000083
:102D50000000000000000000000000000000000073
:102D60000000000000000000000000000000000063
:102D70000000000000000000000000000000000053
:102D80000000000000000000000000000000000043
:102D900001000000000000000E33CDAB34126DE6E0
:102DA000ECDE05000B000000000000000000000049
:102DB0000000000000000000000000000000000013
:102DC0000000000000000000000000000000000003
:102DD00000000000000000000000000000000000F3
:102DE00000000000000000000000000000000000E3
:043110002800002073
:0431140000000000B7
:04000005080026B118
:00000001FF
